{"abi":[{"type":"constructor","inputs":[{"name":"_feeRecipient","type":"address","internalType":"address"},{"name":"_trustedForwarder","type":"address","internalType":"address"}],"stateMutability":"nonpayable"},{"type":"receive","stateMutability":"payable"},{"type":"function","name":"BPS_DENOMINATOR","inputs":[],"outputs":[{"name":"","type":"uint256","internalType":"uint256"}],"stateMutability":"view"},{"type":"function","name":"SYSTEM_PRECOMPILE","inputs":[],"outputs":[{"name":"","type":"address","internalType":"address"}],"stateMutability":"view"},{"type":"function","name":"USDT_PRECOMPILE","inputs":[],"outputs":[{"name":"","type":"address","internalType":"address"}],"stateMutability":"view"},{"type":"function","name":"XCM_PRECOMPILE","inputs":[],"outputs":[{"name":"","type":"address","internalType":"address"}],"stateMutability":"view"},{"type":"function","name":"addStake","inputs":[],"outputs":[],"stateMutability":"payable"},{"type":"function","name":"assignJob","inputs":[{"name":"jobId","type":"uint256","internalType":"uint256"}],"outputs":[],"stateMutability":"nonpayable"},{"type":"function","name":"buyerJobs","inputs":[{"name":"","type":"address","internalType":"address"},{"name":"","type":"uint256","internalType":"uint256"}],"outputs":[{"name":"","type":"uint256","internalType":"uint256"}],"stateMutability":"view"},{"type":"function","name":"cancelJob","inputs":[{"name":"jobId","type":"uint256","internalType":"uint256"}],"outputs":[],"stateMutability":"nonpayable"},{"type":"function","name":"deactivateProvider","inputs":[],"outputs":[],"stateMutability":"nonpayable"},{"type":"function","name":"disputeResult","inputs":[{"name":"jobId","type":"uint256","internalType":"uint256"},{"name":"reason","type":"string","internalType":"string"}],"outputs":[],"stateMutability":"nonpayable"},{"type":"function","name":"estimateXCMWeight","inputs":[{"name":"message","type":"bytes","internalType":"bytes"}],"outputs":[{"name":"refTime","type":"uint64","internalType":"uint64"},{"name":"proofSize","type":"uint64","internalType":"uint64"}],"stateMutability":"nonpayable"},{"type":"function","name":"feeRecipient","inputs":[],"outputs":[{"name":"","type":"address","internalType":"address"}],"stateMutability":"view"},{"type":"function","name":"getBuyerJobs","inputs":[{"name":"buyer","type":"address","internalType":"address"}],"outputs":[{"name":"","type":"uint256[]","internalType":"uint256[]"}],"stateMutability":"view"},{"type":"function","name":"getJob","inputs":[{"name":"jobId","type":"uint256","internalType":"uint256"}],"outputs":[{"name":"","type":"tuple","internalType":"struct HyperwayMarketplace.Job","components":[{"name":"jobId","type":"uint256","internalType":"uint256"},{"name":"buyer","type":"address","internalType":"address"},{"name":"provider","type":"address","internalType":"address"},{"name":"specCID","type":"bytes32","internalType":"bytes32"},{"name":"resultCID","type":"bytes32","internalType":"bytes32"},{"name":"paymentAmount","type":"uint256","internalType":"uint256"},{"name":"computeUnits","type":"uint256","internalType":"uint256"},{"name":"status","type":"uint8","internalType":"enum HyperwayMarketplace.JobStatus"},{"name":"createdAt","type":"uint256","internalType":"uint256"},{"name":"assignedAt","type":"uint256","internalType":"uint256"},{"name":"completedAt","type":"uint256","internalType":"uint256"},{"name":"deadline","type":"uint256","internalType":"uint256"}]}],"stateMutability":"view"},{"type":"function","name":"getMarketplaceStats","inputs":[],"outputs":[{"name":"_providerCount","type":"uint256","internalType":"uint256"},{"name":"_totalJobs","type":"uint256","internalType":"uint256"},{"name":"_completedJobs","type":"uint256","internalType":"uint256"},{"name":"_totalVolume","type":"uint256","internalType":"uint256"}],"stateMutability":"view"},{"type":"function","name":"getProvider","inputs":[{"name":"providerAddr","type":"address","internalType":"address"}],"outputs":[{"name":"","type":"tuple","internalType":"struct HyperwayMarketplace.Provider","components":[{"name":"providerAddress","type":"address","internalType":"address"},{"name":"stakedAmount","type":"uint256","internalType":"uint256"},{"name":"gpuSpecs","type":"bytes","internalType":"bytes"},{"name":"reputationScore","type":"uint8","internalType":"uint8"},{"name":"totalJobsCompleted","type":"uint256","internalType":"uint256"},{"name":"totalJobsFailed","type":"uint256","internalType":"uint256"},{"name":"isActive","type":"bool","internalType":"bool"},{"name":"registeredAt","type":"uint256","internalType":"uint256"}]}],"stateMutability":"view"},{"type":"function","name":"getProviderJobs","inputs":[{"name":"provider","type":"address","internalType":"address"}],"outputs":[{"name":"","type":"uint256[]","internalType":"uint256[]"}],"stateMutability":"view"},{"type":"function","name":"getSubstrateAccountId","inputs":[{"name":"evmAddress","type":"address","internalType":"address"}],"outputs":[{"name":"","type":"bytes32","internalType":"bytes32"}],"stateMutability":"pure"},{"type":"function","name":"isProvider","inputs":[{"name":"","type":"address","internalType":"address"}],"outputs":[{"name":"","type":"bool","internalType":"bool"}],"stateMutability":"view"},{"type":"function","name":"isTrustedForwarder","inputs":[{"name":"forwarder","type":"address","internalType":"address"}],"outputs":[{"name":"","type":"bool","internalType":"bool"}],"stateMutability":"view"},{"type":"function","name":"jobs","inputs":[{"name":"","type":"uint256","internalType":"uint256"}],"outputs":[{"name":"jobId","type":"uint256","internalType":"uint256"},{"name":"buyer","type":"address","internalType":"address"},{"name":"provider","type":"address","internalType":"address"},{"name":"specCID","type":"bytes32","internalType":"bytes32"},{"name":"resultCID","type":"bytes32","internalType":"bytes32"},{"name":"paymentAmount","type":"uint256","internalType":"uint256"},{"name":"computeUnits","type":"uint256","internalType":"uint256"},{"name":"status","type":"uint8","internalType":"enum HyperwayMarketplace.JobStatus"},{"name":"createdAt","type":"uint256","internalType":"uint256"},{"name":"assignedAt","type":"uint256","internalType":"uint256"},{"name":"completedAt","type":"uint256","internalType":"uint256"},{"name":"deadline","type":"uint256","internalType":"uint256"}],"stateMutability":"view"},{"type":"function","name":"minStakeAmount","inputs":[],"outputs":[{"name":"","type":"uint256","internalType":"uint256"}],"stateMutability":"view"},{"type":"function","name":"nextJobId","inputs":[],"outputs":[{"name":"","type":"uint256","internalType":"uint256"}],"stateMutability":"view"},{"type":"function","name":"owner","inputs":[],"outputs":[{"name":"","type":"address","internalType":"address"}],"stateMutability":"view"},{"type":"function","name":"pause","inputs":[],"outputs":[],"stateMutability":"nonpayable"},{"type":"function","name":"paused","inputs":[],"outputs":[{"name":"","type":"bool","internalType":"bool"}],"stateMutability":"view"},{"type":"function","name":"platformFeeBps","inputs":[],"outputs":[{"name":"","type":"uint256","internalType":"uint256"}],"stateMutability":"view"},{"type":"function","name":"providerCount","inputs":[],"outputs":[{"name":"","type":"uint256","internalType":"uint256"}],"stateMutability":"view"},{"type":"function","name":"providerJobs","inputs":[{"name":"","type":"address","internalType":"address"},{"name":"","type":"uint256","internalType":"uint256"}],"outputs":[{"name":"","type":"uint256","internalType":"uint256"}],"stateMutability":"view"},{"type":"function","name":"providers","inputs":[{"name":"","type":"address","internalType":"address"}],"outputs":[{"name":"providerAddress","type":"address","internalType":"address"},{"name":"stakedAmount","type":"uint256","internalType":"uint256"},{"name":"gpuSpecs","type":"bytes","internalType":"bytes"},{"name":"reputationScore","type":"uint8","internalType":"uint8"},{"name":"totalJobsCompleted","type":"uint256","internalType":"uint256"},{"name":"totalJobsFailed","type":"uint256","internalType":"uint256"},{"name":"isActive","type":"bool","internalType":"bool"},{"name":"registeredAt","type":"uint256","internalType":"uint256"}],"stateMutability":"view"},{"type":"function","name":"reactivateProvider","inputs":[],"outputs":[],"stateMutability":"nonpayable"},{"type":"function","name":"registerProvider","inputs":[{"name":"gpuSpecs","type":"bytes","internalType":"bytes"}],"outputs":[],"stateMutability":"payable"},{"type":"function","name":"renounceOwnership","inputs":[],"outputs":[],"stateMutability":"nonpayable"},{"type":"function","name":"resolveDispute","inputs":[{"name":"jobId","type":"uint256","internalType":"uint256"},{"name":"buyerWins","type":"bool","internalType":"bool"}],"outputs":[],"stateMutability":"nonpayable"},{"type":"function","name":"sendXCMMessage","inputs":[{"name":"destination","type":"bytes","internalType":"bytes"},{"name":"message","type":"bytes","internalType":"bytes"}],"outputs":[],"stateMutability":"nonpayable"},{"type":"function","name":"setFeeRecipient","inputs":[{"name":"newRecipient","type":"address","internalType":"address"}],"outputs":[],"stateMutability":"nonpayable"},{"type":"function","name":"setMinStakeAmount","inputs":[{"name":"newMinStake","type":"uint256","internalType":"uint256"}],"outputs":[],"stateMutability":"nonpayable"},{"type":"function","name":"setPlatformFee","inputs":[{"name":"newFeeBps","type":"uint256","internalType":"uint256"}],"outputs":[],"stateMutability":"nonpayable"},{"type":"function","name":"slashProvider","inputs":[{"name":"jobId","type":"uint256","internalType":"uint256"}],"outputs":[],"stateMutability":"nonpayable"},{"type":"function","name":"submitJob","inputs":[{"name":"specCID","type":"bytes32","internalType":"bytes32"},{"name":"computeUnits","type":"uint256","internalType":"uint256"}],"outputs":[{"name":"","type":"uint256","internalType":"uint256"}],"stateMutability":"payable"},{"type":"function","name":"submitJobWithUSDT","inputs":[{"name":"specCID","type":"bytes32","internalType":"bytes32"},{"name":"computeUnits","type":"uint256","internalType":"uint256"},{"name":"usdtAmount","type":"uint256","internalType":"uint256"}],"outputs":[{"name":"","type":"uint256","internalType":"uint256"}],"stateMutability":"nonpayable"},{"type":"function","name":"submitJobWithXCM","inputs":[{"name":"specCID","type":"bytes32","internalType":"bytes32"},{"name":"computeUnits","type":"uint256","internalType":"uint256"},{"name":"xcmMessage","type":"bytes","internalType":"bytes"}],"outputs":[{"name":"","type":"uint256","internalType":"uint256"}],"stateMutability":"nonpayable"},{"type":"function","name":"submitProof","inputs":[{"name":"jobId","type":"uint256","internalType":"uint256"},{"name":"resultCID","type":"bytes32","internalType":"bytes32"},{"name":"","type":"bytes","internalType":"bytes"}],"outputs":[],"stateMutability":"nonpayable"},{"type":"function","name":"totalJobsCompleted","inputs":[],"outputs":[{"name":"","type":"uint256","internalType":"uint256"}],"stateMutability":"view"},{"type":"function","name":"totalJobsCreated","inputs":[],"outputs":[{"name":"","type":"uint256","internalType":"uint256"}],"stateMutability":"view"},{"type":"function","name":"totalVolumeEscrowed","inputs":[],"outputs":[{"name":"","type":"uint256","internalType":"uint256"}],"stateMutability":"view"},{"type":"function","name":"transferOwnership","inputs":[{"name":"newOwner","type":"address","internalType":"address"}],"outputs":[],"stateMutability":"nonpayable"},{"type":"function","name":"trustedForwarder","inputs":[],"outputs":[{"name":"","type":"address","internalType":"address"}],"stateMutability":"view"},{"type":"function","name":"unpause","inputs":[],"outputs":[],"stateMutability":"nonpayable"},{"type":"function","name":"updateGPUSpecs","inputs":[{"name":"newSpecs","type":"bytes","internalType":"bytes"}],"outputs":[],"stateMutability":"nonpayable"},{"type":"function","name":"withdrawStake","inputs":[],"outputs":[],"stateMutability":"nonpayable"},{"type":"event","name":"DisputeResolved","inputs":[{"name":"jobId","type":"uint256","indexed":true,"internalType":"uint256"},{"name":"buyerWins","type":"bool","indexed":false,"internalType":"bool"}],"anonymous":false},{"type":"event","name":"FeeRecipientUpdated","inputs":[{"name":"newRecipient","type":"address","indexed":false,"internalType":"address"}],"anonymous":false},{"type":"event","name":"GPUSpecsUpdated","inputs":[{"name":"provider","type":"address","indexed":true,"internalType":"address"},{"name":"newSpecs","type":"bytes","indexed":false,"internalType":"bytes"}],"anonymous":false},{"type":"event","name":"JobAssigned","inputs":[{"name":"jobId","type":"uint256","indexed":true,"internalType":"uint256"},{"name":"provider","type":"address","indexed":true,"internalType":"address"}],"anonymous":false},{"type":"event","name":"JobCompleted","inputs":[{"name":"jobId","type":"uint256","indexed":true,"internalType":"uint256"},{"name":"provider","type":"address","indexed":true,"internalType":"address"},{"name":"providerPayment","type":"uint256","indexed":false,"internalType":"uint256"}],"anonymous":false},{"type":"event","name":"JobDisputed","inputs":[{"name":"jobId","type":"uint256","indexed":true,"internalType":"uint256"},{"name":"buyer","type":"address","indexed":true,"internalType":"address"},{"name":"reason","type":"string","indexed":false,"internalType":"string"}],"anonymous":false},{"type":"event","name":"JobFailed","inputs":[{"name":"jobId","type":"uint256","indexed":true,"internalType":"uint256"},{"name":"provider","type":"address","indexed":true,"internalType":"address"}],"anonymous":false},{"type":"event","name":"JobSubmitted","inputs":[{"name":"jobId","type":"uint256","indexed":true,"internalType":"uint256"},{"name":"buyer","type":"address","indexed":true,"internalType":"address"},{"name":"specCID","type":"bytes32","indexed":false,"internalType":"bytes32"},{"name":"payment","type":"uint256","indexed":false,"internalType":"uint256"}],"anonymous":false},{"type":"event","name":"MinStakeUpdated","inputs":[{"name":"newMinStake","type":"uint256","indexed":false,"internalType":"uint256"}],"anonymous":false},{"type":"event","name":"OwnershipTransferred","inputs":[{"name":"previousOwner","type":"address","indexed":true,"internalType":"address"},{"name":"newOwner","type":"address","indexed":true,"internalType":"address"}],"anonymous":false},{"type":"event","name":"Paused","inputs":[{"name":"account","type":"address","indexed":false,"internalType":"address"}],"anonymous":false},{"type":"event","name":"PlatformFeeUpdated","inputs":[{"name":"newFeeBps","type":"uint256","indexed":false,"internalType":"uint256"}],"anonymous":false},{"type":"event","name":"ProofSubmitted","inputs":[{"name":"jobId","type":"uint256","indexed":true,"internalType":"uint256"},{"name":"resultCID","type":"bytes32","indexed":false,"internalType":"bytes32"}],"anonymous":false},{"type":"event","name":"ProviderDeactivated","inputs":[{"name":"provider","type":"address","indexed":true,"internalType":"address"}],"anonymous":false},{"type":"event","name":"ProviderReactivated","inputs":[{"name":"provider","type":"address","indexed":true,"internalType":"address"}],"anonymous":false},{"type":"event","name":"ProviderRegistered","inputs":[{"name":"provider","type":"address","indexed":true,"internalType":"address"},{"name":"stakedAmount","type":"uint256","indexed":false,"internalType":"uint256"},{"name":"gpuSpecs","type":"bytes","indexed":false,"internalType":"bytes"}],"anonymous":false},{"type":"event","name":"ProviderSlashed","inputs":[{"name":"provider","type":"address","indexed":true,"internalType":"address"},{"name":"slashAmount","type":"uint256","indexed":false,"internalType":"uint256"},{"name":"reason","type":"string","indexed":false,"internalType":"string"}],"anonymous":false},{"type":"event","name":"StakeWithdrawn","inputs":[{"name":"provider","type":"address","indexed":true,"internalType":"address"},{"name":"amount","type":"uint256","indexed":false,"internalType":"uint256"}],"anonymous":false},{"type":"event","name":"USDTJobSubmitted","inputs":[{"name":"jobId","type":"uint256","indexed":true,"internalType":"uint256"},{"name":"buyer","type":"address","indexed":true,"internalType":"address"},{"name":"usdtAmount","type":"uint256","indexed":false,"internalType":"uint256"}],"anonymous":false},{"type":"event","name":"Unpaused","inputs":[{"name":"account","type":"address","indexed":false,"internalType":"address"}],"anonymous":false},{"type":"event","name":"XCMJobSubmitted","inputs":[{"name":"jobId","type":"uint256","indexed":true,"internalType":"uint256"},{"name":"buyer","type":"address","indexed":true,"internalType":"address"},{"name":"specCID","type":"bytes32","indexed":false,"internalType":"bytes32"}],"anonymous":false},{"type":"error","name":"AlreadyRegistered","inputs":[]},{"type":"error","name":"DeadlineNotReached","inputs":[]},{"type":"error","name":"EnforcedPause","inputs":[]},{"type":"error","name":"ExpectedPause","inputs":[]},{"type":"error","name":"InsufficientStake","inputs":[{"name":"sent","type":"uint256","internalType":"uint256"},{"name":"required","type":"uint256","internalType":"uint256"}]},{"type":"error","name":"InvalidFee","inputs":[{"name":"feeBps","type":"uint256","internalType":"uint256"}]},{"type":"error","name":"InvalidJobStatus","inputs":[]},{"type":"error","name":"JobDoesNotExist","inputs":[]},{"type":"error","name":"JobNotAssigned","inputs":[]},{"type":"error","name":"JobNotPending","inputs":[]},{"type":"error","name":"NotAssignedProvider","inputs":[]},{"type":"error","name":"NotJobBuyer","inputs":[]},{"type":"error","name":"NotProvider","inputs":[]},{"type":"error","name":"NothingToWithdraw","inputs":[]},{"type":"error","name":"OwnableInvalidOwner","inputs":[{"name":"owner","type":"address","internalType":"address"}]},{"type":"error","name":"OwnableUnauthorizedAccount","inputs":[{"name":"account","type":"address","internalType":"address"}]},{"type":"error","name":"PaymentRequired","inputs":[]},{"type":"error","name":"ProviderHasActiveJobs","inputs":[]},{"type":"error","name":"ProviderNotActive","inputs":[]},{"type":"error","name":"ReentrancyGuardReentrantCall","inputs":[]},{"type":"error","name":"SystemPrecompileFailed","inputs":[]},{"type":"error","name":"TransferFailed","inputs":[]},{"type":"error","name":"USDTInsufficientAllowance","inputs":[]},{"type":"error","name":"USDTTransferFailed","inputs":[]},{"type":"error","name":"XCMExecuteFailed","inputs":[]},{"type":"error","name":"XCMNoFundsReceived","inputs":[]},{"type":"error","name":"XCMSendFailed","inputs":[]},{"type":"error","name":"XCMWeighFailed","inputs":[]},{"type":"error","name":"ZeroAddress","inputs":[]}],"bytecode":{"object":"0x60a03461014557601f61316138819003918201601f19168301916001600160401b0383118484101761014957808492604094855283398101031261014557610052602061004b8361015d565b920161015d565b60805260017f9b779b17422d0df92223018b32b4d1fa46e071723d6817e2486d003becc55f00553315610132575f8054336001600160a01b0319821681178355604051939290916001600160a01b0316907f8be0079c531659141344cd1fd0a4f28419497f9722a3daafe3b4186f6b6457e09080a36001600555670de0b6b3a764000060085560fa6009556001600160a01b0316801561012357600a80546001600160a01b031916919091179055612fef908161017282396080518181816114a1015281816119cc0152612f6b0152f35b63d92e233d60e01b5f5260045ffd5b631e4fbdf760e01b5f525f60045260245ffd5b5f80fd5b634e487b7160e01b5f52604160045260245ffd5b51906001600160a01b03821682036101455756fe6080604052600436101561001a575b3615610018575f80fd5b005b5f3560e01c806306e36d0314612a52578063077120cc14612a355780630787bc271461298757806312e8e2c31461291f578063180aedf31461285f5780631adabe0f146125c35780631dffa3dc146124cf57806322dcd13e146124b257806322ef57bd1461249557806334b25ee21461219d578063371ac6ce1461201d5780633c60e0b114611eed5780633dd68feb14611c875780633f4ba83a14611c1e5780633fdeac3014611bfa578063437505bf14611b885780634690484014611b6057806347d4b8cc14611b4357806355f21eb714611a00578063572b6c05146119ac5780635a627dbc146119205780635c975abb146118fc5780635d3dec24146117205780635e215cf0146115ff5780636b074a07146115c25780636ee343f314611544578063715018a6146114ed57806374c83268146114d05780637da0a8771461148c578063812d966a146114565780638456cb59146113e65780638648a5b21461105357806388e424b2146110375780638da5cb5b146110105780638ee0decf14610ff3578063927a831b14610faa578063a16a7d7a14610cbb578063b0c2aa5e14610c9e578063bb7e4a7d14610971578063bd9257cf146108bb578063bed9d861146107be578063bf22c4571461060d578063c6371f8e14610539578063ce02dd7d146104e1578063d40ab0821461045f578063e1a4521814610443578063e74b981b146103c3578063eb4af04514610377578063f18876841461035a578063f2640b5e146102d85763f2fde38b0361000e57346102d45760203660031901126102d457610268612b43565b610270612ea5565b6001600160a01b031680156102c1575f80546001600160a01b03198116831782556001600160a01b0316907f8be0079c531659141344cd1fd0a4f28419497f9722a3daafe3b4186f6b6457e09080a3005b631e4fbdf760e01b5f525f60045260245ffd5b5f80fd5b346102d45760203660031901126102d4576001600160a01b036102f9612b43565b165f52600660205260405f206040519081602082549182815201915f5260205f20905f5b818110610344576103408561033481870382612bc9565b60405191829182612cbb565b0390f35b825484526020909301926001928301920161031d565b346102d4575f3660031901126102d4576020600854604051908152f35b346102d45760203660031901126102d4577f47ab46f2c8d4258304a2f5551c1cbdb6981be49631365d1ba7191288a73f39ef60206004356103b6612ea5565b80600855604051908152a1005b346102d45760203660031901126102d4576103dc612b43565b6103e4612ea5565b6001600160a01b03168015610434576020817f7a7b5a0a132f9e0581eb8527f66eae9ee89c2a3e79d4ac7e41a1f1f4d48a7fc2926001600160601b0360a01b600a541617600a55604051908152a1005b63d92e233d60e01b5f5260045ffd5b346102d4575f3660031901126102d45760206040516127108152f35b346102d4575f3660031901126102d4576001600160a01b0361047f612f40565b16805f52600260205260ff60405f205416156104d257805f526001602052600660405f200160ff1981541690557f3584a4db7306d80246748a1c4bc6188505b8053684afee0c79670dade4db205c5f80a2005b631a40715960e11b5f5260045ffd5b346102d45760403660031901126102d4576104fa612b43565b6001600160a01b03165f908152600760205260409020805460243591908210156102d45760209161052a91612cf4565b90549060031b1c604051908152f35b346102d45760203660031901126102d4576004356001600160401b0381116102d4575f6105a761059961057183943690600401612b16565b929060405192839160208301956347400c2360e01b8752602060248501526044840191612d1d565b03601f198101835282612bc9565b519082620a00005af16105b8612d58565b90158015610602575b6105f3576001600160401b036105e282602080604095518301019101612e81565b835191831682529091166020820152f35b633198820d60e11b5f5260045ffd5b5060408151106105c1565b346102d45760203660031901126102d4575f61016060405161062e81612bad565b8281528260208201528260408201528260608201528260808201528260a08201528260c08201528260e082015282610100820152826101208201528261014082015201526004355f52600460205260405f2060405161068c81612bad565b8154815260018201546001600160a01b039081166020830190815260028401549091166040830190815260038401546060840190815260048501546080850190815260058087015460a08701908152600688015460c088019081526007890154939894959360ff169260e0890192908410156107aa5761018099899761078c9585526008880154966101008a01978852600b60098a0154996101208c019a8b52610140600a8201549c019b8c5201549a6101608d019b8c526040519c518d5260018060a01b0390511660208d015260018060a01b0390511660408c01525160608b01525160808a01525160a08901525160c08801525160e0870190612cae565b51610100850152516101208401525161014083015251610160820152f35b634e487b7160e01b5f52602160045260245ffd5b346102d4575f3660031901126102d4576107d6612eeb565b6001600160a01b036107e6612f40565b16805f52600260205260ff60405f205416156104d257805f52600160205260ff600660405f200154166108ac57805f526001602052600160405f200154801561089d57815f5260016020525f60016040822001555f80808084865af161084a612d58565b501561088e5760207f8108595eb6bad3acefa9da467d90cc2217686d5c5ac85460f8b7849c840645fc91604051908152a260015f516020612f9a5f395f51905f5255005b6312171d8360e31b5f5260045ffd5b630686827b60e51b5f5260045ffd5b638017c96b60e01b5f5260045ffd5b346102d4575f3660031901126102d4576001600160a01b036108db612f40565b16805f52600260205260ff60405f205416156104d257805f526001602052600160405f20015460085480911061094c5750805f526001602052600660405f2001600160ff198254161790557f8b618344327d585386a081c7767b76c59d001736d6299027a0367fcdea17e7505f80a2005b905f526001602052600160405f2001546322df051360e11b5f5260045260245260445ffd5b346102d45760603660031901126102d45760243561098d612f23565b610995612eeb565b60443515610c8f576109a5612f40565b5f8060405160208101906323b872dd60e01b825260018060a01b03851660248201523060448201526044356064820152606481526109e4608482612bc9565b5190826301200000601f60861b015af16109fc612d58565b9015908115610c56575b50610c475760055490610a1882612dca565b6005558260011b83810460021484151715610c3357610a379042612e60565b60405193610a4485612bad565b838552602085019160018060a01b0384168352604086015f815260608701600435815260808801915f835260a0890193604435855260c08a019586525f60e08b0152426101008b01525f6101208b01525f6101408b01526101608a0152875f52600460205260405f20958951875560018060a01b03905116600187019060018060a01b03166001600160601b0360a01b82541617905560018060a01b03905116600286019060018060a01b03166001600160601b0360a01b82541617905551600385015551600484015551600583015551600682015560e08401519360058510156107aa57610160600b91610b3e60209760078601612d87565b61010081015160088501556101208101516009850155610140810151600a850155015191015560018060a01b0381165f5260078352610b808260405f20612e27565b610b8b600b54612dca565b600b55610b9c604435600d54612e60565b600d5560405160443581526001600160a01b0382169083907fc93aec7f984916487c8a577190ed64dd284216f9bf4a315e1f27e0e150fd2a93908690a3604080516004358152604435858201526001600160a01b039092169183917f82ceda8df44c52270b6d81f3237243f4b8923f90f8b6aeb084687785c047dd9b91a360015f516020612f9a5f395f51905f5255604051908152f35b634e487b7160e01b5f52601160045260245ffd5b633a91412960e11b5f5260045ffd5b8051801515925082610c6b575b505083610a06565b81925090602091810103126102d457602001518015908115036102d4578380610c63565b638b87dfbb60e01b5f5260045ffd5b346102d4575f3660031901126102d4576020600554604051908152f35b60203660031901126102d4576004356001600160401b0381116102d457610ce6903690600401612b16565b90610cef612f23565b6001600160a01b03610cff612f40565b1690815f52600260205260ff60405f205416610f9b57600854803410610f85575060405192610d2d84612b91565b8284526020840193348552610d4182612d3d565b610d4e6040519182612bc9565b82815236838501116102d457828460208301375f60208483010152604082019081526060820160328152608083015f815260a08401915f835260c08501936001855260e0860199428b52895f52600160205260405f209660018060a01b039060018060a01b03905116166001600160601b0360a01b8854161787555160018701556002860190518051906001600160401b038211610f7157610dfa82610df48554612b59565b85612dd8565b602090601f8311600114610ee25792610e568360ff947f79fda11c69e0429d87cf53e6967d16c56a3d80a7e6e67dd03ccf7f20d6285fc09e9f99979460079b99975f92610ed7575b50508160011b915f199060031b1c19161790565b90555b511660ff60038801911660ff19825416179055516004860155516005850155600684019051151560ff8019835416911617905551910155835f52600260205260405f20600160ff19825416179055610eb2600354612dca565b600355610ed2604051928392348452604060208501526040840191612d1d565b0390a2005b015190505f80610e42565b90601f19831691845f52815f20925f5b818110610f595750937f79fda11c69e0429d87cf53e6967d16c56a3d80a7e6e67dd03ccf7f20d6285fc09d9e98969360079a9896936001938360ff9810610f41575b505050811b019055610e59565b01515f1960f88460031b161c191690558f8080610f34565b92936020600181928786015181550195019301610ef2565b634e487b7160e01b5f52604160045260245ffd5b6322df051360e11b5f523460045260245260445ffd5b630ea075bf60e21b5f5260045ffd5b346102d45760403660031901126102d457610fc3612b43565b6001600160a01b03165f908152600660205260409020805460243591908210156102d45760209161052a91612cf4565b346102d4575f3660031901126102d4576020600c54604051908152f35b346102d4575f3660031901126102d4575f546040516001600160a01b039091168152602090f35b346102d4575f3660031901126102d45760206040516109008152f35b346102d45760603660031901126102d4576024356044356001600160401b0381116102d457611086903690600401612b16565b9061108f612f23565b611097612eeb565b47915f8060405160208101906347400c2360e01b8252602060248201526110c68161059960448201888a612d1d565b519082620a00005af16110d7612d58565b901580156113db575b6105f357806020806110f793518301019101612e81565b6040929192519360408501908582106001600160401b03831117610f71575f956001600160401b036111609481899861117d9660405216835281602084019116815281604051968795602087019963d3b7e04d60e01b8b52606060248901526084880191612d1d565b93511660448501525116606483015203601f198101835282612bc9565b519082620a00005af161118e612d58565b50156113cc5761119e9047612dbd565b9081156113bd576111ad612f40565b91600554916111bb83612dca565b6005558060011b81810460021482151715610c33576111da9042612e60565b604051916111e783612bad565b8483526001600160a01b0386811660208086019182525f60408088018281526004803560608b0190815260808b0185815260a08c018d815260c08d019a8b5260e08d01878152426101008f01526101208e018890526101408e018890526101608e019c909c528e875296839052939094208a51815595516001870180549189166001600160a01b03199283161790559151600287018054919098169216919091179095559051600384015551928201929092559051600580830191909155915160068201559151919291908110156107aa5760209583600b6101607f82ceda8df44c52270b6d81f3237243f4b8923f90f8b6aeb084687785c047dd9b956112f460409660078c9a01612d87565b61010081015160088501556101208101516009850155610140810151600a850155015191015560018060a01b0381165f526007875261133584835f20612e27565b611340600b54612dca565b600b5561134f85600d54612e60565b600d55815160043581526001600160a01b0382169085907fd78fa691ce29993622e854349fb124a4ef0cad764f67487c9a0f3b381f6dee0a908a90a381516004358152878101959095526001600160a01b031693a360015f516020612f9a5f395f51905f5255604051908152f35b63055bdf6160e21b5f5260045ffd5b63ff656af560e01b5f5260045ffd5b5060408151106110e0565b346102d4575f3660031901126102d4576113fe612ea5565b611406612f23565b5f805460ff60a01b1916600160a01b1790557f62e78cea01bee320cd4e420270b5ea74000d11b0c9f74754ebdbfc544b05a2586020611443612f40565b6040516001600160a01b039091168152a1005b346102d4575f3660031901126102d4576080600354600b54600c54600d5491604051938452602084015260408301526060820152f35b346102d4575f3660031901126102d4576040517f00000000000000000000000000000000000000000000000000000000000000006001600160a01b03168152602090f35b346102d4575f3660031901126102d4576020600354604051908152f35b346102d4575f3660031901126102d457611505612ea5565b5f80546001600160a01b0319811682556001600160a01b03167f8be0079c531659141344cd1fd0a4f28419497f9722a3daafe3b4186f6b6457e08280a3005b346102d45760203660031901126102d45760206bffffffffffffffffffffffff1961156d612b43565b60601b166040518281019182526b77777777777777777777777760a11b603482015282815261159d604082612bc9565b519051908281106115b2575b50604051908152f35b5f1990830360031b1b16826115a9565b346102d45760203660031901126102d4576001600160a01b036115e3612b43565b165f526002602052602060ff60405f2054166040519015158152f35b346102d45760403660031901126102d4576004356024356001600160401b0381116102d457611632903690600401612b16565b829192158015611714575b61170557815f52600460205260405f2092611656612f40565b60018501546001600160a01b0391821695911685036116f6576007019160ff83541660058110156107aa57600281141590816116ea575b506116db577fb59122d87b9a129d9dbb8103c368a3de4e00b50a9fc86c22d48c74cca778e67092600460ff198254161790556116d6604051928392602084526020840191612d1d565b0390a3005b63b969563b60e01b5f5260045ffd5b6001915014158661168d565b63e185211d60e01b5f5260045ffd5b630fc5fb8d60e41b5f5260045ffd5b5060055482101561163d565b60403660031901126102d45760243560043561173a612f23565b3415610c8f57611748612f40565b906005549161175683612dca565b6005558360011b84810460021485151715610c33576117759042612e60565b936040519061178382612bad565b848252602082019260018060a01b03169384845260408301925f8452606081019282845260808201905f825260a0830134815260c0840191825260e08401925f84526101008501964288526101208601985f8a5261014087019a5f8c5261016088019e8f528d5f52600460205260405f209751885560018060a01b03905116600188019060018060a01b03166001600160601b0360a01b82541617905560018060a01b03905116600287019060018060a01b03166001600160601b0360a01b8254161790555160038601555160048501555160058401555160068301555160058110156107aa5760209888967f82ceda8df44c52270b6d81f3237243f4b8923f90f8b6aeb084687785c047dd9b966040966118a3600b9560078801612d87565b51600886015551600985015551600a84015551910155845f52600787526118cc84835f20612e27565b6118d7600b54612dca565b600b556118e634600d54612e60565b600d5581519081523487820152a3604051908152f35b346102d4575f3660031901126102d457602060ff5f5460a01c166040519015158152f35b5f3660031901126102d4576001600160a01b0361193b612f40565b165f52600260205260ff60405f205416156104d2576001600160a01b03611960612f40565b165f52600160205260ff600660405f20015416156108ac573415610c8f576001600160a01b0361198e612f40565b165f526001602052600160405f20016119a8348254612e60565b9055005b346102d45760203660031901126102d45760206119c7612b43565b6040517f00000000000000000000000000000000000000000000000000000000000000006001600160a01b039081169216919091148152f35b346102d45760203660031901126102d457611a19612b43565b5f60e0604051611a2881612b91565b828152826020820152606060408201528260608201528260808201528260a08201528260c0820152015260018060a01b03165f52600160205260405f20604051611a7181612b91565b81546001600160a01b0316815260018201546020820190815291611a9760028201612bea565b6040830190815260ff600383015416916060840192835260048101546080850190815260058201549060a0860191825260ff611b1c6007826006870154169560c08a01961515875201549560e08901968752604051998a9960208b5260018060a01b0390511660208b01525160408a01525161010060608a0152610120890190612c8a565b95511660808701525160a08601525160c085015251151560e0840152516101008301520390f35b346102d4575f3660031901126102d4576020600d54604051908152f35b346102d4575f3660031901126102d457600a546040516001600160a01b039091168152602090f35b346102d45760203660031901126102d4576001600160a01b03611ba9612b43565b165f52600760205260405f206040519081602082549182815201915f5260205f20905f5b818110611be4576103408561033481870382612bc9565b8254845260209093019260019283019201611bcd565b346102d4575f3660031901126102d45760206040516301200000601f60861b018152f35b346102d4575f3660031901126102d457611c36612ea5565b5f5460ff8160a01c1615611c785760ff60a01b19165f557f5db9ee0a495bf2e6ff9c91a7834c1ba4fdd244a5e8aa4e537bd38aeae4b073aa6020611443612f40565b638dfc202b60e01b5f5260045ffd5b346102d45760603660031901126102d4576024356004356044356001600160401b0381116102d457611cbd903690600401612b16565b5050611cc7612eeb565b80158015611ee1575b61170557805f52600460205260405f20611ce8612f40565b6002820180546001600160a01b039283169591939192168503611ed257600781019060ff82541660058110156107aa57600103611ec357600591836004830155600260ff1982541617905542600a82015501549060095491828102928184041481151715610c3357611d606127108694048092612dbd565b8094875f526001602052600460405f2001611d7b8154612dca565b9055875f52600160205260405f206004810154611d9c600583015482612e60565b9182611e86575b505050611db1600c54612dca565b600c5581611e57575b505080611e2c575b50916020917f556d8e38b75e3e273793af33ddc3e1c8bc47d1cd092b52f3a239d9d1c8818997837f4dbba472101e9f148a3a5ecbe793f0ee16a7efe4bf3f8cbfab5330e1642ef95595604051908152a2604051908152a360015f516020612f9a5f395f51905f5255005b5f8080939450809260018060a01b03600a54165af1611e49612d58565b501561088e57829085611dc2565b549193505f91829182918291906001600160a01b03165af1611e77612d58565b501561088e5783918387611dba565b919650606480820294508115918504141715610c335760ff600381611ead8b998b97612d9f565b169201911660ff19825416179055888080611da3565b6394dc143960e01b5f5260045ffd5b637607510360e11b5f5260045ffd5b50600554811015611cd0565b346102d45760203660031901126102d4576004356001600160a01b03611f11612f40565b165f52600260205260ff60405f205416156104d2576001600160a01b03611f36612f40565b165f52600160205260ff600660405f20015416156108ac5780158015612011575b61170557611f63612f23565b805f52600460205260405f20600781019060ff82541660058110156107aa5761200257611f8e612f40565b6002820180546001600160a01b0319166001600160a01b039092169182179055825460ff1916600117909255426009909101555f818152600660205260409020909190611fdc908290612e27565b7f3738a681a43a0b6a554742a08bae57e0215e8a774217dc2e7de6c9411b6d0ddc5f80a3005b6304c0a3d560e01b5f5260045ffd5b50600554811015611f57565b346102d45760203660031901126102d4576004356001600160401b0381116102d45761204d903690600401612b16565b906001600160a01b0361205e612f40565b1690815f52600260205260ff60405f205416156104d257815f526001602052600260405f2001926001600160401b038111610f71576120a7816120a18654612b59565b86612dd8565b5f93601f821160011461211b576120f682807fc5eb1d386f3ae9f3483a635c4e1d91cf40f144d08daf355cb3fa2204a41f990596975f91612110575b508160011b915f199060031b1c19161790565b90555b610ed2604051928392602084526020840191612d1d565b9050850135886120e3565b601f19821694815f5260205f20905f5b8781106121855750837fc5eb1d386f3ae9f3483a635c4e1d91cf40f144d08daf355cb3fa2204a41f990596971061216c575b5050600182811b0190556120f9565b8401355f19600385901b60f8161c19169055858061215d565b9091602060018192858901358155019301910161212b565b346102d45760403660031901126102d457600435602435801515908181036102d4576121c7612ea5565b6121cf612eeb565b82158015612489575b61170557825f52600460205260405f2090600782019060ff82541660058110156107aa576004036116db57156123bf57805460ff19166003179055600581015480612393575b506002019060018060a01b038254165f52600160205260405f209160056001840193845494612251600a87048097612dbd565b90550161225e8154612dca565b905580546001600160a01b03165f9081526001602052604090206004810154600582015461228c9082612e60565b908161235b575b50505082612334575b907f5a87909bff68caaaaf0b3fd9c74eeccc928832f879315e5c6fb7a73612f26c0c927ff7e9b02351a3253c4d2fc01f058822791511c72929065515978606eb09279002608060209460018060a01b0390541692604051908152604086820152600c60408201526b111a5cdc1d5d19481b1bdcdd60a21b6060820152a25b604051908152a260015f516020612f9a5f395f51905f5255005b905f8080808660018060a01b03600a54165af161234f612d58565b501561088e579061229c565b606481029080820460641490151715610c335760ff61237d8193600393612d9f565b169201911660ff19825416179055848080612293565b60018201545f918291829182916001600160a01b03165af16123b3612d58565b501561088e578361221e565b805460ff1916600290811790915501546001600160a01b03165f908152600160205260409020600481015460058201546123f99082612e60565b918261242c575b50505060207f5a87909bff68caaaaf0b3fd9c74eeccc928832f879315e5c6fb7a73612f26c0c9161231a565b606482939492029280840460641490151715610c335760ff6003816124747f5a87909bff68caaaaf0b3fd9c74eeccc928832f879315e5c6fb7a73612f26c0c97602097612d9f565b169201911660ff198254161790559184612400565b506005548310156121d8565b346102d4575f3660031901126102d4576020600b54604051908152f35b346102d4575f3660031901126102d4576020600954604051908152f35b346102d45760203660031901126102d4576004356124eb612eeb565b801580156125b7575b61170557805f52600460205260405f2061250c612f40565b6001820180549092916001600160a01b039182169116036116f657600781019060ff82541660058110156107aa5761200257815460ff191660031790915560050154908161258e575b5f837fd58f2a4e069708a89a2a10de98f25ed4b483a239586791231948ef38a39c109c8280a360015f516020612f9a5f395f51905f5255005b545f918291829182916001600160a01b03165af16125aa612d58565b501561088e578180612555565b506005548110156124f4565b346102d45760203660031901126102d4576004356125df612eeb565b80158015612853575b61170557805f52600460205260405f2090612601612f40565b6001830180549093916001600160a01b039182169116036116f6576007810160ff81541660058110156107aa57600103611ec357600b82015442111561284457600360ff19825416179055600281019260018060a01b038454165f52600160205260405f2091600183019081549361267d600a86048096612dbd565b83556005810161268d8154612dca565b905560018060a01b038754165f52600160205260405f20926004840154936126b9600582015486612e60565b8061280b575b50506005935054600854116127cb575b50015490816127a2575b505080612774575b91546040805193845260208401819052600b908401526a129bd8881d1a5b595bdd5d60aa1b60608401526001600160a01b03169182907ff7e9b02351a3253c4d2fc01f058822791511c72929065515978606eb0927900290608090a27fd58f2a4e069708a89a2a10de98f25ed4b483a239586791231948ef38a39c109c5f80a360015f516020612f9a5f395f51905f5255005b5f8080808460018060a01b03600a54165af161278e612d58565b506126e1576312171d8360e31b5f5260045ffd5b545f918291829182916001600160a01b03165af16127be612d58565b501561088e5783806126d9565b600601805460ff1916905585546001600160a01b03167f3584a4db7306d80246748a1c4bc6188505b8053684afee0c79670dade4db205c5f80a2866126cf565b606486029580870460641490151715610c3357600360ff61282f8193600599612d9f565b169201911660ff1982541617905588806126bf565b633376277360e11b5f5260045ffd5b506005548110156125e8565b346102d45760203660031901126102d4576004355f52600460205261018060405f2080549060018060a01b036001820154169060018060a01b0360028201541660038201546129056004840154600585015460068601549060ff60078801541692600888015495600989015497600b600a8b01549a01549a6040519c8d5260208d015260408c015260608b015260808a015260a089015260c088015260e0870190612cae565b610100850152610120840152610140830152610160820152f35b346102d45760203660031901126102d45760043561293b612ea5565b6103e88111612975576020817f45610d581145924dd7090a5017e5f2b1d6f42213bb2e95707ff86846bbfcb1ca92600955604051908152a1005b63179c637760e11b5f5260045260245ffd5b346102d45760203660031901126102d4576001600160a01b036129a8612b43565b165f52600160205260405f2060018060a01b038154166001820154916129d060028201612bea565b60ff600383015416916004810154600582015490612a15600760ff60068601541694015494604051988998895260208901526101006040890152610100880190612c8a565b946060870152608086015260a0850152151560c084015260e08301520390f35b346102d4575f3660031901126102d4576020604051620a00008152f35b346102d45760403660031901126102d4576004356001600160401b0381116102d457612a82903690600401612b16565b602435906001600160401b0382116102d457612adc612aee5f94610599612aae87963690600401612b16565b612ab6612ea5565b6040519586946020860198637f0a3bf960e01b8a52604060248801526064870191612d1d565b84810360231901604486015291612d1d565b519082620a00005af1612aff612d58565b5015612b0757005b636dbddca560e11b5f5260045ffd5b9181601f840112156102d4578235916001600160401b0383116102d457602083818601950101116102d457565b600435906001600160a01b03821682036102d457565b90600182811c92168015612b87575b6020831014612b7357565b634e487b7160e01b5f52602260045260245ffd5b91607f1691612b68565b61010081019081106001600160401b03821117610f7157604052565b61018081019081106001600160401b03821117610f7157604052565b90601f801991011681019081106001600160401b03821117610f7157604052565b9060405191825f825492612bfd84612b59565b8084529360018116908115612c685750600114612c24575b50612c2292500383612bc9565b565b90505f9291925260205f20905f915b818310612c4c575050906020612c22928201015f612c15565b6020919350806001915483858901015201910190918492612c33565b905060209250612c2294915060ff191682840152151560051b8201015f612c15565b805180835260209291819084018484015e5f828201840152601f01601f1916010190565b9060058210156107aa5752565b60206040818301928281528451809452019201905f5b818110612cde5750505090565b8251845260209384019390920191600101612cd1565b8054821015612d09575f5260205f2001905f90565b634e487b7160e01b5f52603260045260245ffd5b908060209392818452848401375f828201840152601f01601f1916010190565b6001600160401b038111610f7157601f01601f191660200190565b3d15612d82573d90612d6982612d3d565b91612d776040519384612bc9565b82523d5f602084013e565b606090565b9060058110156107aa5760ff80198354169116179055565b8115612da9570490565b634e487b7160e01b5f52601260045260245ffd5b91908203918211610c3357565b5f198114610c335760010190565b601f8211612de557505050565b5f5260205f20906020601f840160051c83019310612e1d575b601f0160051c01905b818110612e12575050565b5f8155600101612e07565b9091508190612dfe565b805468010000000000000000811015610f7157612e4991600182018155612cf4565b819291549060031b91821b915f19901b1916179055565b91908201809211610c3357565b51906001600160401b03821682036102d457565b91908260409103126102d457612ea26020612e9b84612e6d565b9301612e6d565b90565b5f546001600160a01b0390811690612ebb612f40565b1603612ec357565b612ecb612f40565b63118cdaa760e01b5f9081526001600160a01b0391909116600452602490fd5b60025f516020612f9a5f395f51905f525414612f145760025f516020612f9a5f395f51905f5255565b633ee5aeb560e01b5f5260045ffd5b60ff5f5460a01c16612f3157565b63d93c066560e01b5f5260045ffd5b601436101580612f67575b15612f635760131936013681116102d4573560601c90565b3390565b50337f00000000000000000000000000000000000000000000000000000000000000006001600160a01b031614612f4b56fe9b779b17422d0df92223018b32b4d1fa46e071723d6817e2486d003becc55f00a26469706673582212204171760e82583d11c8b7716c815c263f78b9f8e1a5183c0f8474151b697a201d64736f6c634300081c0033","linkReferences":{}},"methodIdentifiers":{"BPS_DENOMINATOR()":"e1a45218","SYSTEM_PRECOMPILE()":"88e424b2","USDT_PRECOMPILE()":"3fdeac30","XCM_PRECOMPILE()":"077120cc","addStake()":"5a627dbc","assignJob(uint256)":"3c60e0b1","buyerJobs(address,uint256)":"ce02dd7d","cancelJob(uint256)":"1dffa3dc","deactivateProvider()":"d40ab082","disputeResult(uint256,string)":"5e215cf0","estimateXCMWeight(bytes)":"c6371f8e","feeRecipient()":"46904840","getBuyerJobs(address)":"437505bf","getJob(uint256)":"bf22c457","getMarketplaceStats()":"812d966a","getProvider(address)":"55f21eb7","getProviderJobs(address)":"f2640b5e","getSubstrateAccountId(address)":"6ee343f3","isProvider(address)":"6b074a07","isTrustedForwarder(address)":"572b6c05","jobs(uint256)":"180aedf3","minStakeAmount()":"f1887684","nextJobId()":"b0c2aa5e","owner()":"8da5cb5b","pause()":"8456cb59","paused()":"5c975abb","platformFeeBps()":"22dcd13e","providerCount()":"74c83268","providerJobs(address,uint256)":"927a831b","providers(address)":"0787bc27","reactivateProvider()":"bd9257cf","registerProvider(bytes)":"a16a7d7a","renounceOwnership()":"715018a6","resolveDispute(uint256,bool)":"34b25ee2","sendXCMMessage(bytes,bytes)":"06e36d03","setFeeRecipient(address)":"e74b981b","setMinStakeAmount(uint256)":"eb4af045","setPlatformFee(uint256)":"12e8e2c3","slashProvider(uint256)":"1adabe0f","submitJob(bytes32,uint256)":"5d3dec24","submitJobWithUSDT(bytes32,uint256,uint256)":"bb7e4a7d","submitJobWithXCM(bytes32,uint256,bytes)":"8648a5b2","submitProof(uint256,bytes32,bytes)":"3dd68feb","totalJobsCompleted()":"8ee0decf","totalJobsCreated()":"22ef57bd","totalVolumeEscrowed()":"47d4b8cc","transferOwnership(address)":"f2fde38b","trustedForwarder()":"7da0a877","unpause()":"3f4ba83a","updateGPUSpecs(bytes)":"371ac6ce","withdrawStake()":"bed9d861"},"id":43}