{"abi":[{"type":"constructor","inputs":[{"name":"_feeRecipient","type":"address","internalType":"address"},{"name":"_trustedForwarder","type":"address","internalType":"address"}],"stateMutability":"nonpayable"},{"type":"receive","stateMutability":"payable"},{"type":"function","name":"BPS_DENOMINATOR","inputs":[],"outputs":[{"name":"","type":"uint256","internalType":"uint256"}],"stateMutability":"view"},{"type":"function","name":"XCM_PRECOMPILE","inputs":[],"outputs":[{"name":"","type":"address","internalType":"address"}],"stateMutability":"view"},{"type":"function","name":"addStake","inputs":[],"outputs":[],"stateMutability":"payable"},{"type":"function","name":"assignJob","inputs":[{"name":"jobId","type":"uint256","internalType":"uint256"}],"outputs":[],"stateMutability":"nonpayable"},{"type":"function","name":"buyerJobs","inputs":[{"name":"","type":"address","internalType":"address"},{"name":"","type":"uint256","internalType":"uint256"}],"outputs":[{"name":"","type":"uint256","internalType":"uint256"}],"stateMutability":"view"},{"type":"function","name":"cancelJob","inputs":[{"name":"jobId","type":"uint256","internalType":"uint256"}],"outputs":[],"stateMutability":"nonpayable"},{"type":"function","name":"deactivateProvider","inputs":[],"outputs":[],"stateMutability":"nonpayable"},{"type":"function","name":"disputeResult","inputs":[{"name":"jobId","type":"uint256","internalType":"uint256"},{"name":"reason","type":"string","internalType":"string"}],"outputs":[],"stateMutability":"nonpayable"},{"type":"function","name":"estimateXCMWeight","inputs":[{"name":"message","type":"bytes","internalType":"bytes"}],"outputs":[{"name":"refTime","type":"uint64","internalType":"uint64"},{"name":"proofSize","type":"uint64","internalType":"uint64"}],"stateMutability":"nonpayable"},{"type":"function","name":"feeRecipient","inputs":[],"outputs":[{"name":"","type":"address","internalType":"address"}],"stateMutability":"view"},{"type":"function","name":"getBuyerJobs","inputs":[{"name":"buyer","type":"address","internalType":"address"}],"outputs":[{"name":"","type":"uint256[]","internalType":"uint256[]"}],"stateMutability":"view"},{"type":"function","name":"getJob","inputs":[{"name":"jobId","type":"uint256","internalType":"uint256"}],"outputs":[{"name":"","type":"tuple","internalType":"struct HyperwayMarketplace.Job","components":[{"name":"jobId","type":"uint256","internalType":"uint256"},{"name":"buyer","type":"address","internalType":"address"},{"name":"provider","type":"address","internalType":"address"},{"name":"specCID","type":"bytes32","internalType":"bytes32"},{"name":"resultCID","type":"bytes32","internalType":"bytes32"},{"name":"paymentAmount","type":"uint256","internalType":"uint256"},{"name":"computeUnits","type":"uint256","internalType":"uint256"},{"name":"status","type":"uint8","internalType":"enum HyperwayMarketplace.JobStatus"},{"name":"createdAt","type":"uint256","internalType":"uint256"},{"name":"assignedAt","type":"uint256","internalType":"uint256"},{"name":"completedAt","type":"uint256","internalType":"uint256"},{"name":"deadline","type":"uint256","internalType":"uint256"}]}],"stateMutability":"view"},{"type":"function","name":"getMarketplaceStats","inputs":[],"outputs":[{"name":"_providerCount","type":"uint256","internalType":"uint256"},{"name":"_totalJobs","type":"uint256","internalType":"uint256"},{"name":"_completedJobs","type":"uint256","internalType":"uint256"},{"name":"_totalVolume","type":"uint256","internalType":"uint256"}],"stateMutability":"view"},{"type":"function","name":"getProvider","inputs":[{"name":"providerAddr","type":"address","internalType":"address"}],"outputs":[{"name":"","type":"tuple","internalType":"struct HyperwayMarketplace.Provider","components":[{"name":"providerAddress","type":"address","internalType":"address"},{"name":"stakedAmount","type":"uint256","internalType":"uint256"},{"name":"gpuSpecs","type":"bytes","internalType":"bytes"},{"name":"reputationScore","type":"uint8","internalType":"uint8"},{"name":"totalJobsCompleted","type":"uint256","internalType":"uint256"},{"name":"totalJobsFailed","type":"uint256","internalType":"uint256"},{"name":"isActive","type":"bool","internalType":"bool"},{"name":"registeredAt","type":"uint256","internalType":"uint256"}]}],"stateMutability":"view"},{"type":"function","name":"getProviderJobs","inputs":[{"name":"provider","type":"address","internalType":"address"}],"outputs":[{"name":"","type":"uint256[]","internalType":"uint256[]"}],"stateMutability":"view"},{"type":"function","name":"isProvider","inputs":[{"name":"","type":"address","internalType":"address"}],"outputs":[{"name":"","type":"bool","internalType":"bool"}],"stateMutability":"view"},{"type":"function","name":"isTrustedForwarder","inputs":[{"name":"forwarder","type":"address","internalType":"address"}],"outputs":[{"name":"","type":"bool","internalType":"bool"}],"stateMutability":"view"},{"type":"function","name":"jobs","inputs":[{"name":"","type":"uint256","internalType":"uint256"}],"outputs":[{"name":"jobId","type":"uint256","internalType":"uint256"},{"name":"buyer","type":"address","internalType":"address"},{"name":"provider","type":"address","internalType":"address"},{"name":"specCID","type":"bytes32","internalType":"bytes32"},{"name":"resultCID","type":"bytes32","internalType":"bytes32"},{"name":"paymentAmount","type":"uint256","internalType":"uint256"},{"name":"computeUnits","type":"uint256","internalType":"uint256"},{"name":"status","type":"uint8","internalType":"enum HyperwayMarketplace.JobStatus"},{"name":"createdAt","type":"uint256","internalType":"uint256"},{"name":"assignedAt","type":"uint256","internalType":"uint256"},{"name":"completedAt","type":"uint256","internalType":"uint256"},{"name":"deadline","type":"uint256","internalType":"uint256"}],"stateMutability":"view"},{"type":"function","name":"minStakeAmount","inputs":[],"outputs":[{"name":"","type":"uint256","internalType":"uint256"}],"stateMutability":"view"},{"type":"function","name":"nextJobId","inputs":[],"outputs":[{"name":"","type":"uint256","internalType":"uint256"}],"stateMutability":"view"},{"type":"function","name":"owner","inputs":[],"outputs":[{"name":"","type":"address","internalType":"address"}],"stateMutability":"view"},{"type":"function","name":"pause","inputs":[],"outputs":[],"stateMutability":"nonpayable"},{"type":"function","name":"paused","inputs":[],"outputs":[{"name":"","type":"bool","internalType":"bool"}],"stateMutability":"view"},{"type":"function","name":"platformFeeBps","inputs":[],"outputs":[{"name":"","type":"uint256","internalType":"uint256"}],"stateMutability":"view"},{"type":"function","name":"providerCount","inputs":[],"outputs":[{"name":"","type":"uint256","internalType":"uint256"}],"stateMutability":"view"},{"type":"function","name":"providerJobs","inputs":[{"name":"","type":"address","internalType":"address"},{"name":"","type":"uint256","internalType":"uint256"}],"outputs":[{"name":"","type":"uint256","internalType":"uint256"}],"stateMutability":"view"},{"type":"function","name":"providers","inputs":[{"name":"","type":"address","internalType":"address"}],"outputs":[{"name":"providerAddress","type":"address","internalType":"address"},{"name":"stakedAmount","type":"uint256","internalType":"uint256"},{"name":"gpuSpecs","type":"bytes","internalType":"bytes"},{"name":"reputationScore","type":"uint8","internalType":"uint8"},{"name":"totalJobsCompleted","type":"uint256","internalType":"uint256"},{"name":"totalJobsFailed","type":"uint256","internalType":"uint256"},{"name":"isActive","type":"bool","internalType":"bool"},{"name":"registeredAt","type":"uint256","internalType":"uint256"}],"stateMutability":"view"},{"type":"function","name":"reactivateProvider","inputs":[],"outputs":[],"stateMutability":"nonpayable"},{"type":"function","name":"registerProvider","inputs":[{"name":"gpuSpecs","type":"bytes","internalType":"bytes"}],"outputs":[],"stateMutability":"payable"},{"type":"function","name":"renounceOwnership","inputs":[],"outputs":[],"stateMutability":"nonpayable"},{"type":"function","name":"resolveDispute","inputs":[{"name":"jobId","type":"uint256","internalType":"uint256"},{"name":"buyerWins","type":"bool","internalType":"bool"}],"outputs":[],"stateMutability":"nonpayable"},{"type":"function","name":"sendXCMMessage","inputs":[{"name":"destination","type":"bytes","internalType":"bytes"},{"name":"message","type":"bytes","internalType":"bytes"}],"outputs":[],"stateMutability":"nonpayable"},{"type":"function","name":"setFeeRecipient","inputs":[{"name":"newRecipient","type":"address","internalType":"address"}],"outputs":[],"stateMutability":"nonpayable"},{"type":"function","name":"setMinStakeAmount","inputs":[{"name":"newMinStake","type":"uint256","internalType":"uint256"}],"outputs":[],"stateMutability":"nonpayable"},{"type":"function","name":"setPlatformFee","inputs":[{"name":"newFeeBps","type":"uint256","internalType":"uint256"}],"outputs":[],"stateMutability":"nonpayable"},{"type":"function","name":"slashProvider","inputs":[{"name":"jobId","type":"uint256","internalType":"uint256"}],"outputs":[],"stateMutability":"nonpayable"},{"type":"function","name":"submitJob","inputs":[{"name":"specCID","type":"bytes32","internalType":"bytes32"},{"name":"computeUnits","type":"uint256","internalType":"uint256"}],"outputs":[{"name":"","type":"uint256","internalType":"uint256"}],"stateMutability":"payable"},{"type":"function","name":"submitJobWithXCM","inputs":[{"name":"specCID","type":"bytes32","internalType":"bytes32"},{"name":"computeUnits","type":"uint256","internalType":"uint256"},{"name":"xcmMessage","type":"bytes","internalType":"bytes"}],"outputs":[{"name":"","type":"uint256","internalType":"uint256"}],"stateMutability":"nonpayable"},{"type":"function","name":"submitProof","inputs":[{"name":"jobId","type":"uint256","internalType":"uint256"},{"name":"resultCID","type":"bytes32","internalType":"bytes32"},{"name":"","type":"bytes","internalType":"bytes"}],"outputs":[],"stateMutability":"nonpayable"},{"type":"function","name":"totalJobsCompleted","inputs":[],"outputs":[{"name":"","type":"uint256","internalType":"uint256"}],"stateMutability":"view"},{"type":"function","name":"totalJobsCreated","inputs":[],"outputs":[{"name":"","type":"uint256","internalType":"uint256"}],"stateMutability":"view"},{"type":"function","name":"totalVolumeEscrowed","inputs":[],"outputs":[{"name":"","type":"uint256","internalType":"uint256"}],"stateMutability":"view"},{"type":"function","name":"transferOwnership","inputs":[{"name":"newOwner","type":"address","internalType":"address"}],"outputs":[],"stateMutability":"nonpayable"},{"type":"function","name":"trustedForwarder","inputs":[],"outputs":[{"name":"","type":"address","internalType":"address"}],"stateMutability":"view"},{"type":"function","name":"unpause","inputs":[],"outputs":[],"stateMutability":"nonpayable"},{"type":"function","name":"updateGPUSpecs","inputs":[{"name":"newSpecs","type":"bytes","internalType":"bytes"}],"outputs":[],"stateMutability":"nonpayable"},{"type":"function","name":"withdrawStake","inputs":[],"outputs":[],"stateMutability":"nonpayable"},{"type":"event","name":"DisputeResolved","inputs":[{"name":"jobId","type":"uint256","indexed":true,"internalType":"uint256"},{"name":"buyerWins","type":"bool","indexed":false,"internalType":"bool"}],"anonymous":false},{"type":"event","name":"FeeRecipientUpdated","inputs":[{"name":"newRecipient","type":"address","indexed":false,"internalType":"address"}],"anonymous":false},{"type":"event","name":"GPUSpecsUpdated","inputs":[{"name":"provider","type":"address","indexed":true,"internalType":"address"},{"name":"newSpecs","type":"bytes","indexed":false,"internalType":"bytes"}],"anonymous":false},{"type":"event","name":"JobAssigned","inputs":[{"name":"jobId","type":"uint256","indexed":true,"internalType":"uint256"},{"name":"provider","type":"address","indexed":true,"internalType":"address"}],"anonymous":false},{"type":"event","name":"JobCompleted","inputs":[{"name":"jobId","type":"uint256","indexed":true,"internalType":"uint256"},{"name":"provider","type":"address","indexed":true,"internalType":"address"},{"name":"providerPayment","type":"uint256","indexed":false,"internalType":"uint256"}],"anonymous":false},{"type":"event","name":"JobDisputed","inputs":[{"name":"jobId","type":"uint256","indexed":true,"internalType":"uint256"},{"name":"buyer","type":"address","indexed":true,"internalType":"address"},{"name":"reason","type":"string","indexed":false,"internalType":"string"}],"anonymous":false},{"type":"event","name":"JobFailed","inputs":[{"name":"jobId","type":"uint256","indexed":true,"internalType":"uint256"},{"name":"provider","type":"address","indexed":true,"internalType":"address"}],"anonymous":false},{"type":"event","name":"JobSubmitted","inputs":[{"name":"jobId","type":"uint256","indexed":true,"internalType":"uint256"},{"name":"buyer","type":"address","indexed":true,"internalType":"address"},{"name":"specCID","type":"bytes32","indexed":false,"internalType":"bytes32"},{"name":"payment","type":"uint256","indexed":false,"internalType":"uint256"}],"anonymous":false},{"type":"event","name":"MinStakeUpdated","inputs":[{"name":"newMinStake","type":"uint256","indexed":false,"internalType":"uint256"}],"anonymous":false},{"type":"event","name":"OwnershipTransferred","inputs":[{"name":"previousOwner","type":"address","indexed":true,"internalType":"address"},{"name":"newOwner","type":"address","indexed":true,"internalType":"address"}],"anonymous":false},{"type":"event","name":"Paused","inputs":[{"name":"account","type":"address","indexed":false,"internalType":"address"}],"anonymous":false},{"type":"event","name":"PlatformFeeUpdated","inputs":[{"name":"newFeeBps","type":"uint256","indexed":false,"internalType":"uint256"}],"anonymous":false},{"type":"event","name":"ProofSubmitted","inputs":[{"name":"jobId","type":"uint256","indexed":true,"internalType":"uint256"},{"name":"resultCID","type":"bytes32","indexed":false,"internalType":"bytes32"}],"anonymous":false},{"type":"event","name":"ProviderDeactivated","inputs":[{"name":"provider","type":"address","indexed":true,"internalType":"address"}],"anonymous":false},{"type":"event","name":"ProviderReactivated","inputs":[{"name":"provider","type":"address","indexed":true,"internalType":"address"}],"anonymous":false},{"type":"event","name":"ProviderRegistered","inputs":[{"name":"provider","type":"address","indexed":true,"internalType":"address"},{"name":"stakedAmount","type":"uint256","indexed":false,"internalType":"uint256"},{"name":"gpuSpecs","type":"bytes","indexed":false,"internalType":"bytes"}],"anonymous":false},{"type":"event","name":"ProviderSlashed","inputs":[{"name":"provider","type":"address","indexed":true,"internalType":"address"},{"name":"slashAmount","type":"uint256","indexed":false,"internalType":"uint256"},{"name":"reason","type":"string","indexed":false,"internalType":"string"}],"anonymous":false},{"type":"event","name":"StakeWithdrawn","inputs":[{"name":"provider","type":"address","indexed":true,"internalType":"address"},{"name":"amount","type":"uint256","indexed":false,"internalType":"uint256"}],"anonymous":false},{"type":"event","name":"Unpaused","inputs":[{"name":"account","type":"address","indexed":false,"internalType":"address"}],"anonymous":false},{"type":"event","name":"XCMJobSubmitted","inputs":[{"name":"jobId","type":"uint256","indexed":true,"internalType":"uint256"},{"name":"buyer","type":"address","indexed":true,"internalType":"address"},{"name":"specCID","type":"bytes32","indexed":false,"internalType":"bytes32"}],"anonymous":false},{"type":"error","name":"AlreadyRegistered","inputs":[]},{"type":"error","name":"DeadlineNotReached","inputs":[]},{"type":"error","name":"EnforcedPause","inputs":[]},{"type":"error","name":"ExpectedPause","inputs":[]},{"type":"error","name":"InsufficientStake","inputs":[{"name":"sent","type":"uint256","internalType":"uint256"},{"name":"required","type":"uint256","internalType":"uint256"}]},{"type":"error","name":"InvalidFee","inputs":[{"name":"feeBps","type":"uint256","internalType":"uint256"}]},{"type":"error","name":"InvalidJobStatus","inputs":[]},{"type":"error","name":"JobDoesNotExist","inputs":[]},{"type":"error","name":"JobNotAssigned","inputs":[]},{"type":"error","name":"JobNotPending","inputs":[]},{"type":"error","name":"NotAssignedProvider","inputs":[]},{"type":"error","name":"NotJobBuyer","inputs":[]},{"type":"error","name":"NotProvider","inputs":[]},{"type":"error","name":"NothingToWithdraw","inputs":[]},{"type":"error","name":"OwnableInvalidOwner","inputs":[{"name":"owner","type":"address","internalType":"address"}]},{"type":"error","name":"OwnableUnauthorizedAccount","inputs":[{"name":"account","type":"address","internalType":"address"}]},{"type":"error","name":"PaymentRequired","inputs":[]},{"type":"error","name":"ProviderHasActiveJobs","inputs":[]},{"type":"error","name":"ProviderNotActive","inputs":[]},{"type":"error","name":"ReentrancyGuardReentrantCall","inputs":[]},{"type":"error","name":"TransferFailed","inputs":[]},{"type":"error","name":"XCMExecuteFailed","inputs":[]},{"type":"error","name":"XCMNoFundsReceived","inputs":[]},{"type":"error","name":"XCMSendFailed","inputs":[]},{"type":"error","name":"XCMWeighFailed","inputs":[]},{"type":"error","name":"ZeroAddress","inputs":[]}],"bytecode":{"object":"0x60a06040526001600555670de0b6b3a764000060085560fa600955348015610025575f5ffd5b506040516160e23803806160e28339818101604052810190610047919061031f565b33818073ffffffffffffffffffffffffffffffffffffffff1660808173ffffffffffffffffffffffffffffffffffffffff168152505050600161009c6100916101ce60201b60201c565b6101f760201b60201c565b5f01819055505f73ffffffffffffffffffffffffffffffffffffffff168173ffffffffffffffffffffffffffffffffffffffff1603610112575f6040517f1e4fbdf7000000000000000000000000000000000000000000000000000000008152600401610109919061036c565b60405180910390fd5b6101218161020060201b60201c565b505f73ffffffffffffffffffffffffffffffffffffffff168273ffffffffffffffffffffffffffffffffffffffff1603610187576040517fd92e233d00000000000000000000000000000000000000000000000000000000815260040160405180910390fd5b81600a5f6101000a81548173ffffffffffffffffffffffffffffffffffffffff021916908373ffffffffffffffffffffffffffffffffffffffff1602179055505050610385565b5f7f9b779b17422d0df92223018b32b4d1fa46e071723d6817e2486d003becc55f005f1b905090565b5f819050919050565b5f5f5f9054906101000a900473ffffffffffffffffffffffffffffffffffffffff169050815f5f6101000a81548173ffffffffffffffffffffffffffffffffffffffff021916908373ffffffffffffffffffffffffffffffffffffffff1602179055508173ffffffffffffffffffffffffffffffffffffffff168173ffffffffffffffffffffffffffffffffffffffff167f8be0079c531659141344cd1fd0a4f28419497f9722a3daafe3b4186f6b6457e060405160405180910390a35050565b5f5ffd5b5f73ffffffffffffffffffffffffffffffffffffffff82169050919050565b5f6102ee826102c5565b9050919050565b6102fe816102e4565b8114610308575f5ffd5b50565b5f81519050610319816102f5565b92915050565b5f5f60408385031215610335576103346102c1565b5b5f6103428582860161030b565b92505060206103538582860161030b565b9150509250929050565b610366816102e4565b82525050565b5f60208201905061037f5f83018461035d565b92915050565b608051615d4561039d5f395f612d850152615d455ff3fe60806040526004361061028b575f3560e01c80636b074a0711610159578063bd9257cf116100c0578063e1a4521811610079578063e1a452181461097a578063e74b981b146109a4578063eb4af045146109cc578063f1887684146109f4578063f2640b5e14610a1e578063f2fde38b14610a5a57610292565b8063bd9257cf14610883578063bed9d86114610899578063bf22c457146108af578063c6371f8e146108eb578063ce02dd7d14610928578063d40ab0821461096457610292565b80638648a5b2116101125780638648a5b2146107715780638da5cb5b146107ad5780638ee0decf146107d7578063927a831b14610801578063a16a7d7a1461083d578063b0c2aa5e1461085957610292565b80636b074a0714610688578063715018a6146106c457806374c83268146106da5780637da0a87714610704578063812d966a1461072e5780638456cb591461075b57610292565b80633c60e0b1116101fd57806355f21eb7116101b657806355f21eb714610584578063572b6c05146105c05780635a627dbc146105fc5780635c975abb146106065780635d3dec24146106305780635e215cf01461066057610292565b80633c60e0b11461048e5780633dd68feb146104b65780633f4ba83a146104de578063437505bf146104f4578063469048401461053057806347d4b8cc1461055a57610292565b80631adabe0f1161024f5780631adabe0f1461039a5780631dffa3dc146103c257806322dcd13e146103ea57806322ef57bd1461041457806334b25ee21461043e578063371ac6ce1461046657610292565b806306e36d0314610296578063077120cc146102be5780630787bc27146102e857806312e8e2c31461032b578063180aedf31461035357610292565b3661029257005b5f5ffd5b3480156102a1575f5ffd5b506102bc60048036038101906102b79190614838565b610a82565b005b3480156102c9575f5ffd5b506102d2610b8e565b6040516102df91906148f5565b60405180910390f35b3480156102f3575f5ffd5b5061030e60048036038101906103099190614938565b610b95565b604051610322989796959493929190614a20565b60405180910390f35b348015610336575f5ffd5b50610351600480360381019061034c9190614acd565b610c96565b005b34801561035e575f5ffd5b5061037960048036038101906103749190614acd565b610d26565b6040516103919c9b9a99989796959493929190614b83565b60405180910390f35b3480156103a5575f5ffd5b506103c060048036038101906103bb9190614acd565b610dcc565b005b3480156103cd575f5ffd5b506103e860048036038101906103e39190614acd565b611382565b005b3480156103f5575f5ffd5b506103fe611633565b60405161040b9190614c3b565b60405180910390f35b34801561041f575f5ffd5b50610428611639565b6040516104359190614c3b565b60405180910390f35b348015610449575f5ffd5b50610464600480360381019061045f9190614c7e565b61163f565b005b348015610471575f5ffd5b5061048c60048036038101906104879190614cbc565b611ad8565b005b348015610499575f5ffd5b506104b460048036038101906104af9190614acd565b611c08565b005b3480156104c1575f5ffd5b506104dc60048036038101906104d79190614d31565b611f17565b005b3480156104e9575f5ffd5b506104f261239b565b005b3480156104ff575f5ffd5b5061051a60048036038101906105159190614938565b6123ad565b6040516105279190614e59565b60405180910390f35b34801561053b575f5ffd5b50610544612440565b60405161055191906148f5565b60405180910390f35b348015610565575f5ffd5b5061056e612465565b60405161057b9190614c3b565b60405180910390f35b34801561058f575f5ffd5b506105aa60048036038101906105a59190614938565b61246b565b6040516105b79190614f9b565b60405180910390f35b3480156105cb575f5ffd5b506105e660048036038101906105e19190614938565b612605565b6040516105f39190614fbb565b60405180910390f35b610604612643565b005b348015610611575f5ffd5b5061061a6127ec565b6040516106279190614fbb565b60405180910390f35b61064a60048036038101906106459190614fd4565b612801565b6040516106579190614c3b565b60405180910390f35b34801561066b575f5ffd5b5061068660048036038101906106819190615067565b612b27565b005b348015610693575f5ffd5b506106ae60048036038101906106a99190614938565b612d4c565b6040516106bb9190614fbb565b60405180910390f35b3480156106cf575f5ffd5b506106d8612d69565b005b3480156106e5575f5ffd5b506106ee612d7c565b6040516106fb9190614c3b565b60405180910390f35b34801561070f575f5ffd5b50610718612d82565b60405161072591906148f5565b60405180910390f35b348015610739575f5ffd5b50610742612da9565b60405161075294939291906150c4565b60405180910390f35b348015610766575f5ffd5b5061076f612dc7565b005b34801561077c575f5ffd5b5061079760048036038101906107929190615107565b612dd9565b6040516107a49190614c3b565b60405180910390f35b3480156107b8575f5ffd5b506107c16133c0565b6040516107ce91906148f5565b60405180910390f35b3480156107e2575f5ffd5b506107eb6133e7565b6040516107f89190614c3b565b60405180910390f35b34801561080c575f5ffd5b5061082760048036038101906108229190615178565b6133ed565b6040516108349190614c3b565b60405180910390f35b61085760048036038101906108529190614cbc565b613418565b005b348015610864575f5ffd5b5061086d613755565b60405161087a9190614c3b565b60405180910390f35b34801561088e575f5ffd5b5061089761375b565b005b3480156108a4575f5ffd5b506108ad61394e565b005b3480156108ba575f5ffd5b506108d560048036038101906108d09190614acd565b613c21565b6040516108e291906152c8565b60405180910390f35b3480156108f6575f5ffd5b50610911600480360381019061090c9190614cbc565b613d8a565b60405161091f929190615304565b60405180910390f35b348015610933575f5ffd5b5061094e60048036038101906109499190615178565b613eb6565b60405161095b9190614c3b565b60405180910390f35b34801561096f575f5ffd5b50610978613ee1565b005b348015610985575f5ffd5b5061098e614009565b60405161099b9190614c3b565b60405180910390f35b3480156109af575f5ffd5b506109ca60048036038101906109c59190614938565b61400f565b005b3480156109d7575f5ffd5b506109f260048036038101906109ed9190614acd565b6140f6565b005b3480156109ff575f5ffd5b50610a0861413f565b604051610a159190614c3b565b60405180910390f35b348015610a29575f5ffd5b50610a446004803603810190610a3f9190614938565b614145565b604051610a519190614e59565b60405180910390f35b348015610a65575f5ffd5b50610a806004803603810190610a7b9190614938565b6141d8565b005b610a8a61425c565b5f620a000073ffffffffffffffffffffffffffffffffffffffff1685858585604051602401610abc9493929190615365565b604051602081830303815290604052637f0a3bf960e01b6020820180517bffffffffffffffffffffffffffffffffffffffffffffffffffffffff8381831617835250505050604051610b0e91906153d8565b5f604051808303815f865af19150503d805f8114610b47576040519150601f19603f3d011682016040523d82523d5f602084013e610b4c565b606091505b5050905080610b87576040517fdb7bb94a00000000000000000000000000000000000000000000000000000000815260040160405180910390fd5b5050505050565b620a000081565b6001602052805f5260405f205f91509050805f015f9054906101000a900473ffffffffffffffffffffffffffffffffffffffff1690806001015490806002018054610bdf9061541b565b80601f0160208091040260200160405190810160405280929190818152602001828054610c0b9061541b565b8015610c565780601f10610c2d57610100808354040283529160200191610c56565b820191905f5260205f20905b815481529060010190602001808311610c3957829003601f168201915b505050505090806003015f9054906101000a900460ff1690806004015490806005015490806006015f9054906101000a900460ff16908060070154905088565b610c9e61425c565b6103e8811115610ce557806040517f2f38c6ee000000000000000000000000000000000000000000000000000000008152600401610cdc9190614c3b565b60405180910390fd5b806009819055507f45610d581145924dd7090a5017e5f2b1d6f42213bb2e95707ff86846bbfcb1ca81604051610d1b9190614c3b565b60405180910390a150565b6004602052805f5260405f205f91509050805f015490806001015f9054906101000a900473ffffffffffffffffffffffffffffffffffffffff1690806002015f9054906101000a900473ffffffffffffffffffffffffffffffffffffffff1690806003015490806004015490806005015490806006015490806007015f9054906101000a900460ff169080600801549080600901549080600a01549080600b015490508c565b610dd46142e3565b805f811480610de557506005548110155b15610e1c576040517ffc5fb8d000000000000000000000000000000000000000000000000000000000815260040160405180910390fd5b5f60045f8481526020019081526020015f209050806001015f9054906101000a900473ffffffffffffffffffffffffffffffffffffffff1673ffffffffffffffffffffffffffffffffffffffff16610e72614305565b73ffffffffffffffffffffffffffffffffffffffff1614610ebf576040517fe185211d00000000000000000000000000000000000000000000000000000000815260040160405180910390fd5b60016004811115610ed357610ed2614b10565b5b816007015f9054906101000a900460ff166004811115610ef657610ef5614b10565b5b14610f2d576040517f94dc143900000000000000000000000000000000000000000000000000000000815260040160405180910390fd5b80600b01544211610f6a576040517f66ec4ee600000000000000000000000000000000000000000000000000000000815260040160405180910390fd5b6003816007015f6101000a81548160ff02191690836004811115610f9157610f90614b10565b5b02179055505f60015f836002015f9054906101000a900473ffffffffffffffffffffffffffffffffffffffff1673ffffffffffffffffffffffffffffffffffffffff1673ffffffffffffffffffffffffffffffffffffffff1681526020019081526020015f2090505f600a826001015461100b91906154a5565b905080826001015f82825461102091906154d5565b92505081905550816005015f81548092919061103b90615508565b919050555061106d836002015f9054906101000a900473ffffffffffffffffffffffffffffffffffffffff165f614313565b600854826001015410156110fd575f826006015f6101000a81548160ff021916908315150217905550826002015f9054906101000a900473ffffffffffffffffffffffffffffffffffffffff1673ffffffffffffffffffffffffffffffffffffffff167f3584a4db7306d80246748a1c4bc6188505b8053684afee0c79670dade4db205c60405160405180910390a25b5f836005015411156111d1575f836001015f9054906101000a900473ffffffffffffffffffffffffffffffffffffffff1673ffffffffffffffffffffffffffffffffffffffff16846005015460405161115590615572565b5f6040518083038185875af1925050503d805f811461118f576040519150601f19603f3d011682016040523d82523d5f602084013e611194565b606091505b50509050806111cf576040517f90b8ec1800000000000000000000000000000000000000000000000000000000815260040160405180910390fd5b505b5f81111561129b575f600a5f9054906101000a900473ffffffffffffffffffffffffffffffffffffffff1673ffffffffffffffffffffffffffffffffffffffff168260405161121f90615572565b5f6040518083038185875af1925050503d805f8114611259576040519150601f19603f3d011682016040523d82523d5f602084013e61125e565b606091505b5050905080611299576040517f90b8ec1800000000000000000000000000000000000000000000000000000000815260040160405180910390fd5b505b826002015f9054906101000a900473ffffffffffffffffffffffffffffffffffffffff1673ffffffffffffffffffffffffffffffffffffffff167ff7e9b02351a3253c4d2fc01f058822791511c72929065515978606eb092790028260405161130491906155e0565b60405180910390a2826002015f9054906101000a900473ffffffffffffffffffffffffffffffffffffffff1673ffffffffffffffffffffffffffffffffffffffff16857fd58f2a4e069708a89a2a10de98f25ed4b483a239586791231948ef38a39c109c60405160405180910390a35050505061137f6143b0565b50565b61138a6142e3565b805f81148061139b57506005548110155b156113d2576040517ffc5fb8d000000000000000000000000000000000000000000000000000000000815260040160405180910390fd5b5f60045f8481526020019081526020015f209050806001015f9054906101000a900473ffffffffffffffffffffffffffffffffffffffff1673ffffffffffffffffffffffffffffffffffffffff16611428614305565b73ffffffffffffffffffffffffffffffffffffffff1614611475576040517fe185211d00000000000000000000000000000000000000000000000000000000815260040160405180910390fd5b5f600481111561148857611487614b10565b5b816007015f9054906101000a900460ff1660048111156114ab576114aa614b10565b5b146114e2576040517f04c0a3d500000000000000000000000000000000000000000000000000000000815260040160405180910390fd5b6003816007015f6101000a81548160ff0219169083600481111561150957611508614b10565b5b02179055505f816005015411156115e2575f816001015f9054906101000a900473ffffffffffffffffffffffffffffffffffffffff1673ffffffffffffffffffffffffffffffffffffffff16826005015460405161156690615572565b5f6040518083038185875af1925050503d805f81146115a0576040519150601f19603f3d011682016040523d82523d5f602084013e6115a5565b606091505b50509050806115e0576040517f90b8ec1800000000000000000000000000000000000000000000000000000000815260040160405180910390fd5b505b5f73ffffffffffffffffffffffffffffffffffffffff16837fd58f2a4e069708a89a2a10de98f25ed4b483a239586791231948ef38a39c109c60405160405180910390a350506116306143b0565b50565b60095481565b600b5481565b61164761425c565b61164f6142e3565b815f81148061166057506005548110155b15611697576040517ffc5fb8d000000000000000000000000000000000000000000000000000000000815260040160405180910390fd5b5f60045f8581526020019081526020015f2090506004808111156116be576116bd614b10565b5b816007015f9054906101000a900460ff1660048111156116e1576116e0614b10565b5b14611718576040517fb969563b00000000000000000000000000000000000000000000000000000000815260040160405180910390fd5b8215611a37576003816007015f6101000a81548160ff0219169083600481111561174557611744614b10565b5b02179055505f8160050154111561181e575f816001015f9054906101000a900473ffffffffffffffffffffffffffffffffffffffff1673ffffffffffffffffffffffffffffffffffffffff1682600501546040516117a290615572565b5f6040518083038185875af1925050503d805f81146117dc576040519150601f19603f3d011682016040523d82523d5f602084013e6117e1565b606091505b505090508061181c576040517f90b8ec1800000000000000000000000000000000000000000000000000000000815260040160405180910390fd5b505b5f60015f836002015f9054906101000a900473ffffffffffffffffffffffffffffffffffffffff1673ffffffffffffffffffffffffffffffffffffffff1673ffffffffffffffffffffffffffffffffffffffff1681526020019081526020015f2090505f600a826001015461189391906154a5565b905080826001015f8282546118a891906154d5565b92505081905550816005015f8154809291906118c390615508565b91905055506118f5836002015f9054906101000a900473ffffffffffffffffffffffffffffffffffffffff165f614313565b5f8111156119bf575f600a5f9054906101000a900473ffffffffffffffffffffffffffffffffffffffff1673ffffffffffffffffffffffffffffffffffffffff168260405161194390615572565b5f6040518083038185875af1925050503d805f811461197d576040519150601f19603f3d011682016040523d82523d5f602084013e611982565b606091505b50509050806119bd576040517f90b8ec1800000000000000000000000000000000000000000000000000000000815260040160405180910390fd5b505b826002015f9054906101000a900473ffffffffffffffffffffffffffffffffffffffff1673ffffffffffffffffffffffffffffffffffffffff167ff7e9b02351a3253c4d2fc01f058822791511c72929065515978606eb0927900282604051611a289190615656565b60405180910390a25050611a92565b6002816007015f6101000a81548160ff02191690836004811115611a5e57611a5d614b10565b5b0217905550611a91816002015f9054906101000a900473ffffffffffffffffffffffffffffffffffffffff166001614313565b5b837f5a87909bff68caaaaf0b3fd9c74eeccc928832f879315e5c6fb7a73612f26c0c84604051611ac29190614fbb565b60405180910390a25050611ad46143b0565b5050565b5f611ae1614305565b905060025f8273ffffffffffffffffffffffffffffffffffffffff1673ffffffffffffffffffffffffffffffffffffffff1681526020019081526020015f205f9054906101000a900460ff16611b63576040517f3480e2b200000000000000000000000000000000000000000000000000000000815260040160405180910390fd5b828260015f8473ffffffffffffffffffffffffffffffffffffffff1673ffffffffffffffffffffffffffffffffffffffff1681526020019081526020015f206002019182611bb2929190615859565b508073ffffffffffffffffffffffffffffffffffffffff167fc5eb1d386f3ae9f3483a635c4e1d91cf40f144d08daf355cb3fa2204a41f99058484604051611bfb929190615926565b60405180910390a2505050565b60025f611c13614305565b73ffffffffffffffffffffffffffffffffffffffff1673ffffffffffffffffffffffffffffffffffffffff1681526020019081526020015f205f9054906101000a900460ff16611c8f576040517f3480e2b200000000000000000000000000000000000000000000000000000000815260040160405180910390fd5b60015f611c9a614305565b73ffffffffffffffffffffffffffffffffffffffff1673ffffffffffffffffffffffffffffffffffffffff1681526020019081526020015f206006015f9054906101000a900460ff16611d19576040517f8017c96b00000000000000000000000000000000000000000000000000000000815260040160405180910390fd5b805f811480611d2a57506005548110155b15611d61576040517ffc5fb8d000000000000000000000000000000000000000000000000000000000815260040160405180910390fd5b611d696143ca565b5f60045f8481526020019081526020015f2090505f6004811115611d9057611d8f614b10565b5b816007015f9054906101000a900460ff166004811115611db357611db2614b10565b5b14611dea576040517f04c0a3d500000000000000000000000000000000000000000000000000000000815260040160405180910390fd5b5f611df3614305565b905080826002015f6101000a81548173ffffffffffffffffffffffffffffffffffffffff021916908373ffffffffffffffffffffffffffffffffffffffff1602179055506001826007015f6101000a81548160ff02191690836004811115611e5e57611e5d614b10565b5b021790555042826009018190555060065f8273ffffffffffffffffffffffffffffffffffffffff1673ffffffffffffffffffffffffffffffffffffffff1681526020019081526020015f2084908060018154018082558091505060019003905f5260205f20015f90919091909150558073ffffffffffffffffffffffffffffffffffffffff16847f3738a681a43a0b6a554742a08bae57e0215e8a774217dc2e7de6c9411b6d0ddc60405160405180910390a350505050565b611f1f6142e3565b835f811480611f3057506005548110155b15611f67576040517ffc5fb8d000000000000000000000000000000000000000000000000000000000815260040160405180910390fd5b5f60045f8781526020019081526020015f2090505f611f84614305565b9050816002015f9054906101000a900473ffffffffffffffffffffffffffffffffffffffff1673ffffffffffffffffffffffffffffffffffffffff168173ffffffffffffffffffffffffffffffffffffffff161461200e576040517fec0ea20600000000000000000000000000000000000000000000000000000000815260040160405180910390fd5b6001600481111561202257612021614b10565b5b826007015f9054906101000a900460ff16600481111561204557612044614b10565b5b1461207c576040517f94dc143900000000000000000000000000000000000000000000000000000000815260040160405180910390fd5b8582600401819055506002826007015f6101000a81548160ff021916908360048111156120ac576120ab614b10565b5b02179055504282600a01819055505f61271060095484600501546120d09190615948565b6120da91906154a5565b90505f8184600501546120ed91906154d5565b90505f60015f8573ffffffffffffffffffffffffffffffffffffffff1673ffffffffffffffffffffffffffffffffffffffff1681526020019081526020015f209050806004015f81548092919061214390615508565b9190505550612153846001614313565b600c5f81548092919061216590615508565b91905055505f821115612236575f856002015f9054906101000a900473ffffffffffffffffffffffffffffffffffffffff1673ffffffffffffffffffffffffffffffffffffffff16836040516121ba90615572565b5f6040518083038185875af1925050503d805f81146121f4576040519150601f19603f3d011682016040523d82523d5f602084013e6121f9565b606091505b5050905080612234576040517f90b8ec1800000000000000000000000000000000000000000000000000000000815260040160405180910390fd5b505b5f831115612300575f600a5f9054906101000a900473ffffffffffffffffffffffffffffffffffffffff1673ffffffffffffffffffffffffffffffffffffffff168460405161228490615572565b5f6040518083038185875af1925050503d805f81146122be576040519150601f19603f3d011682016040523d82523d5f602084013e6122c3565b606091505b50509050806122fe576040517f90b8ec1800000000000000000000000000000000000000000000000000000000815260040160405180910390fd5b505b897f556d8e38b75e3e273793af33ddc3e1c8bc47d1cd092b52f3a239d9d1c88189978a6040516123309190615989565b60405180910390a28373ffffffffffffffffffffffffffffffffffffffff168a7f4dbba472101e9f148a3a5ecbe793f0ee16a7efe4bf3f8cbfab5330e1642ef9558460405161237f9190614c3b565b60405180910390a35050505050506123956143b0565b50505050565b6123a361425c565b6123ab61440b565b565b606060075f8373ffffffffffffffffffffffffffffffffffffffff1673ffffffffffffffffffffffffffffffffffffffff1681526020019081526020015f2080548060200260200160405190810160405280929190818152602001828054801561243457602002820191905f5260205f20905b815481526020019060010190808311612420575b50505050509050919050565b600a5f9054906101000a900473ffffffffffffffffffffffffffffffffffffffff1681565b600d5481565b6124736146e3565b60015f8373ffffffffffffffffffffffffffffffffffffffff1673ffffffffffffffffffffffffffffffffffffffff1681526020019081526020015f20604051806101000160405290815f82015f9054906101000a900473ffffffffffffffffffffffffffffffffffffffff1673ffffffffffffffffffffffffffffffffffffffff1673ffffffffffffffffffffffffffffffffffffffff1681526020016001820154815260200160028201805461252a9061541b565b80601f01602080910402602001604051908101604052809291908181526020018280546125569061541b565b80156125a15780601f10612578576101008083540402835291602001916125a1565b820191905f5260205f20905b81548152906001019060200180831161258457829003601f168201915b50505050508152602001600382015f9054906101000a900460ff1660ff1660ff1681526020016004820154815260200160058201548152602001600682015f9054906101000a900460ff161515151581526020016007820154815250509050919050565b5f61260e612d82565b73ffffffffffffffffffffffffffffffffffffffff168273ffffffffffffffffffffffffffffffffffffffff16149050919050565b60025f61264e614305565b73ffffffffffffffffffffffffffffffffffffffff1673ffffffffffffffffffffffffffffffffffffffff1681526020019081526020015f205f9054906101000a900460ff166126ca576040517f3480e2b200000000000000000000000000000000000000000000000000000000815260040160405180910390fd5b60015f6126d5614305565b73ffffffffffffffffffffffffffffffffffffffff1673ffffffffffffffffffffffffffffffffffffffff1681526020019081526020015f206006015f9054906101000a900460ff16612754576040517f8017c96b00000000000000000000000000000000000000000000000000000000815260040160405180910390fd5b5f340361278d576040517f8b87dfbb00000000000000000000000000000000000000000000000000000000815260040160405180910390fd5b3460015f612799614305565b73ffffffffffffffffffffffffffffffffffffffff1673ffffffffffffffffffffffffffffffffffffffff1681526020019081526020015f206001015f8282546127e391906159a2565b92505081905550565b5f5f60149054906101000a900460ff16905090565b5f61280a6143ca565b5f3403612843576040517f8b87dfbb00000000000000000000000000000000000000000000000000000000815260040160405180910390fd5b5f61284c614305565b90505f60055f81548092919061286190615508565b9190505590506040518061018001604052808281526020018373ffffffffffffffffffffffffffffffffffffffff1681526020015f73ffffffffffffffffffffffffffffffffffffffff1681526020018681526020015f5f1b81526020013481526020018581526020015f60048111156128de576128dd614b10565b5b81526020014281526020015f81526020015f81526020016002866129029190615948565b4261290d91906159a2565b81525060045f8381526020019081526020015f205f820151815f01556020820151816001015f6101000a81548173ffffffffffffffffffffffffffffffffffffffff021916908373ffffffffffffffffffffffffffffffffffffffff1602179055506040820151816002015f6101000a81548173ffffffffffffffffffffffffffffffffffffffff021916908373ffffffffffffffffffffffffffffffffffffffff160217905550606082015181600301556080820151816004015560a0820151816005015560c0820151816006015560e0820151816007015f6101000a81548160ff02191690836004811115612a0757612a06614b10565b5b02179055506101008201518160080155610120820151816009015561014082015181600a015561016082015181600b015590505060075f8373ffffffffffffffffffffffffffffffffffffffff1673ffffffffffffffffffffffffffffffffffffffff1681526020019081526020015f2081908060018154018082558091505060019003905f5260205f20015f9091909190915055600b5f815480929190612aae90615508565b919050555034600d5f828254612ac491906159a2565b925050819055508173ffffffffffffffffffffffffffffffffffffffff16817f82ceda8df44c52270b6d81f3237243f4b8923f90f8b6aeb084687785c047dd9b8734604051612b149291906159d5565b60405180910390a3809250505092915050565b825f811480612b3857506005548110155b15612b6f576040517ffc5fb8d000000000000000000000000000000000000000000000000000000000815260040160405180910390fd5b5f60045f8681526020019081526020015f2090505f612b8c614305565b9050816001015f9054906101000a900473ffffffffffffffffffffffffffffffffffffffff1673ffffffffffffffffffffffffffffffffffffffff168173ffffffffffffffffffffffffffffffffffffffff1614612c16576040517fe185211d00000000000000000000000000000000000000000000000000000000815260040160405180910390fd5b60026004811115612c2a57612c29614b10565b5b826007015f9054906101000a900460ff166004811115612c4d57612c4c614b10565b5b14158015612c90575060016004811115612c6a57612c69614b10565b5b826007015f9054906101000a900460ff166004811115612c8d57612c8c614b10565b5b14155b15612cc7576040517fb969563b00000000000000000000000000000000000000000000000000000000815260040160405180910390fd5b6004826007015f6101000a81548160ff02191690836004811115612cee57612ced614b10565b5b02179055508073ffffffffffffffffffffffffffffffffffffffff16867fb59122d87b9a129d9dbb8103c368a3de4e00b50a9fc86c22d48c74cca778e6708787604051612d3c929190615a28565b60405180910390a3505050505050565b6002602052805f5260405f205f915054906101000a900460ff1681565b612d7161425c565b612d7a5f61446c565b565b60035481565b5f7f0000000000000000000000000000000000000000000000000000000000000000905090565b5f5f5f5f600354600b54600c54600d54935093509350935090919293565b612dcf61425c565b612dd761452d565b565b5f612de26143ca565b612dea6142e3565b5f4790505f5f620a000073ffffffffffffffffffffffffffffffffffffffff168686604051602401612e1d929190615926565b6040516020818303038152906040526347400c2360e01b6020820180517bffffffffffffffffffffffffffffffffffffffffffffffffffffffff8381831617835250505050604051612e6f91906153d8565b5f604051808303815f865af19150503d805f8114612ea8576040519150601f19603f3d011682016040523d82523d5f602084013e612ead565b606091505b5091509150811580612ec0575060408151105b15612ef7576040517f6331041a00000000000000000000000000000000000000000000000000000000815260040160405180910390fd5b5f5f82806020019051810190612f0d9190615a74565b915091505f620a000073ffffffffffffffffffffffffffffffffffffffff16898960405180604001604052808767ffffffffffffffff1681526020018667ffffffffffffffff16815250604051602401612f6993929190615aee565b60405160208183030381529060405263d3b7e04d60e01b6020820180517bffffffffffffffffffffffffffffffffffffffffffffffffffffffff8381831617835250505050604051612fbb91906153d8565b5f604051808303815f865af19150503d805f8114612ff4576040519150601f19603f3d011682016040523d82523d5f602084013e612ff9565b606091505b5050905080613034576040517fff656af500000000000000000000000000000000000000000000000000000000815260040160405180910390fd5b50505050505f814761304691906154d5565b90505f8103613081576040517f156f7d8400000000000000000000000000000000000000000000000000000000815260040160405180910390fd5b5f61308a614305565b90505f60055f81548092919061309f90615508565b9190505590506040518061018001604052808281526020018373ffffffffffffffffffffffffffffffffffffffff1681526020015f73ffffffffffffffffffffffffffffffffffffffff1681526020018a81526020015f5f1b81526020018481526020018981526020015f600481111561311c5761311b614b10565b5b81526020014281526020015f81526020015f815260200160028a6131409190615948565b4261314b91906159a2565b81525060045f8381526020019081526020015f205f820151815f01556020820151816001015f6101000a81548173ffffffffffffffffffffffffffffffffffffffff021916908373ffffffffffffffffffffffffffffffffffffffff1602179055506040820151816002015f6101000a81548173ffffffffffffffffffffffffffffffffffffffff021916908373ffffffffffffffffffffffffffffffffffffffff160217905550606082015181600301556080820151816004015560a0820151816005015560c0820151816006015560e0820151816007015f6101000a81548160ff0219169083600481111561324557613244614b10565b5b02179055506101008201518160080155610120820151816009015561014082015181600a015561016082015181600b015590505060075f8373ffffffffffffffffffffffffffffffffffffffff1673ffffffffffffffffffffffffffffffffffffffff1681526020019081526020015f2081908060018154018082558091505060019003905f5260205f20015f9091909190915055600b5f8154809291906132ec90615508565b919050555082600d5f82825461330291906159a2565b925050819055508173ffffffffffffffffffffffffffffffffffffffff16817fd78fa691ce29993622e854349fb124a4ef0cad764f67487c9a0f3b381f6dee0a8b6040516133509190615989565b60405180910390a38173ffffffffffffffffffffffffffffffffffffffff16817f82ceda8df44c52270b6d81f3237243f4b8923f90f8b6aeb084687785c047dd9b8b866040516133a19291906159d5565b60405180910390a3809450505050506133b86143b0565b949350505050565b5f5f5f9054906101000a900473ffffffffffffffffffffffffffffffffffffffff16905090565b600c5481565b6006602052815f5260405f208181548110613406575f80fd5b905f5260205f20015f91509150505481565b6134206143ca565b5f613429614305565b905060025f8273ffffffffffffffffffffffffffffffffffffffff1673ffffffffffffffffffffffffffffffffffffffff1681526020019081526020015f205f9054906101000a900460ff16156134ac576040517f3a81d6fc00000000000000000000000000000000000000000000000000000000815260040160405180910390fd5b6008543410156134f757346008546040517f45be0a260000000000000000000000000000000000000000000000000000000081526004016134ee929190615b1e565b60405180910390fd5b6040518061010001604052808273ffffffffffffffffffffffffffffffffffffffff16815260200134815260200184848080601f0160208091040260200160405190810160405280939291908181526020018383808284375f81840152601f19601f820116905080830192505050505050508152602001603260ff1681526020015f81526020015f81526020016001151581526020014281525060015f8373ffffffffffffffffffffffffffffffffffffffff1673ffffffffffffffffffffffffffffffffffffffff1681526020019081526020015f205f820151815f015f6101000a81548173ffffffffffffffffffffffffffffffffffffffff021916908373ffffffffffffffffffffffffffffffffffffffff1602179055506020820151816001015560408201518160020190816136319190615b45565b506060820151816003015f6101000a81548160ff021916908360ff1602179055506080820151816004015560a0820151816005015560c0820151816006015f6101000a81548160ff02191690831515021790555060e08201518160070155905050600160025f8373ffffffffffffffffffffffffffffffffffffffff1673ffffffffffffffffffffffffffffffffffffffff1681526020019081526020015f205f6101000a81548160ff02191690831515021790555060035f8154809291906136f990615508565b91905055508073ffffffffffffffffffffffffffffffffffffffff167f79fda11c69e0429d87cf53e6967d16c56a3d80a7e6e67dd03ccf7f20d6285fc034858560405161374893929190615c14565b60405180910390a2505050565b60055481565b5f613764614305565b905060025f8273ffffffffffffffffffffffffffffffffffffffff1673ffffffffffffffffffffffffffffffffffffffff1681526020019081526020015f205f9054906101000a900460ff166137e6576040517f3480e2b200000000000000000000000000000000000000000000000000000000815260040160405180910390fd5b60085460015f8373ffffffffffffffffffffffffffffffffffffffff1673ffffffffffffffffffffffffffffffffffffffff1681526020019081526020015f206001015410156138b15760015f8273ffffffffffffffffffffffffffffffffffffffff1673ffffffffffffffffffffffffffffffffffffffff1681526020019081526020015f20600101546008546040517f45be0a260000000000000000000000000000000000000000000000000000000081526004016138a8929190615b1e565b60405180910390fd5b6001805f8373ffffffffffffffffffffffffffffffffffffffff1673ffffffffffffffffffffffffffffffffffffffff1681526020019081526020015f206006015f6101000a81548160ff0219169083151502179055508073ffffffffffffffffffffffffffffffffffffffff167f8b618344327d585386a081c7767b76c59d001736d6299027a0367fcdea17e75060405160405180910390a250565b6139566142e3565b5f61395f614305565b905060025f8273ffffffffffffffffffffffffffffffffffffffff1673ffffffffffffffffffffffffffffffffffffffff1681526020019081526020015f205f9054906101000a900460ff166139e1576040517f3480e2b200000000000000000000000000000000000000000000000000000000815260040160405180910390fd5b60015f8273ffffffffffffffffffffffffffffffffffffffff1673ffffffffffffffffffffffffffffffffffffffff1681526020019081526020015f206006015f9054906101000a900460ff1615613a65576040517f8017c96b00000000000000000000000000000000000000000000000000000000815260040160405180910390fd5b5f60015f8373ffffffffffffffffffffffffffffffffffffffff1673ffffffffffffffffffffffffffffffffffffffff1681526020019081526020015f206001015490505f8103613ae2576040517fd0d04f6000000000000000000000000000000000000000000000000000000000815260040160405180910390fd5b5f60015f8473ffffffffffffffffffffffffffffffffffffffff1673ffffffffffffffffffffffffffffffffffffffff1681526020019081526020015f20600101819055505f8273ffffffffffffffffffffffffffffffffffffffff1682604051613b4c90615572565b5f6040518083038185875af1925050503d805f8114613b86576040519150601f19603f3d011682016040523d82523d5f602084013e613b8b565b606091505b5050905080613bc6576040517f90b8ec1800000000000000000000000000000000000000000000000000000000815260040160405180910390fd5b8273ffffffffffffffffffffffffffffffffffffffff167f8108595eb6bad3acefa9da467d90cc2217686d5c5ac85460f8b7849c840645fc83604051613c0c9190614c3b565b60405180910390a2505050613c1f6143b0565b565b613c2961473c565b60045f8381526020019081526020015f20604051806101800160405290815f8201548152602001600182015f9054906101000a900473ffffffffffffffffffffffffffffffffffffffff1673ffffffffffffffffffffffffffffffffffffffff1673ffffffffffffffffffffffffffffffffffffffff168152602001600282015f9054906101000a900473ffffffffffffffffffffffffffffffffffffffff1673ffffffffffffffffffffffffffffffffffffffff1673ffffffffffffffffffffffffffffffffffffffff16815260200160038201548152602001600482015481526020016005820154815260200160068201548152602001600782015f9054906101000a900460ff166004811115613d4557613d44614b10565b5b6004811115613d5757613d56614b10565b5b81526020016008820154815260200160098201548152602001600a8201548152602001600b820154815250509050919050565b5f5f5f5f620a000073ffffffffffffffffffffffffffffffffffffffff168686604051602401613dbb929190615926565b6040516020818303038152906040526347400c2360e01b6020820180517bffffffffffffffffffffffffffffffffffffffffffffffffffffffff8381831617835250505050604051613e0d91906153d8565b5f604051808303815f865af19150503d805f8114613e46576040519150601f19603f3d011682016040523d82523d5f602084013e613e4b565b606091505b5091509150811580613e5e575060408151105b15613e95576040517f6331041a00000000000000000000000000000000000000000000000000000000815260040160405180910390fd5b80806020019051810190613ea99190615a74565b9350935050509250929050565b6007602052815f5260405f208181548110613ecf575f80fd5b905f5260205f20015f91509150505481565b5f613eea614305565b905060025f8273ffffffffffffffffffffffffffffffffffffffff1673ffffffffffffffffffffffffffffffffffffffff1681526020019081526020015f205f9054906101000a900460ff16613f6c576040517f3480e2b200000000000000000000000000000000000000000000000000000000815260040160405180910390fd5b5f60015f8373ffffffffffffffffffffffffffffffffffffffff1673ffffffffffffffffffffffffffffffffffffffff1681526020019081526020015f206006015f6101000a81548160ff0219169083151502179055508073ffffffffffffffffffffffffffffffffffffffff167f3584a4db7306d80246748a1c4bc6188505b8053684afee0c79670dade4db205c60405160405180910390a250565b61271081565b61401761425c565b5f73ffffffffffffffffffffffffffffffffffffffff168173ffffffffffffffffffffffffffffffffffffffff160361407c576040517fd92e233d00000000000000000000000000000000000000000000000000000000815260040160405180910390fd5b80600a5f6101000a81548173ffffffffffffffffffffffffffffffffffffffff021916908373ffffffffffffffffffffffffffffffffffffffff1602179055507f7a7b5a0a132f9e0581eb8527f66eae9ee89c2a3e79d4ac7e41a1f1f4d48a7fc2816040516140eb91906148f5565b60405180910390a150565b6140fe61425c565b806008819055507f47ab46f2c8d4258304a2f5551c1cbdb6981be49631365d1ba7191288a73f39ef816040516141349190614c3b565b60405180910390a150565b60085481565b606060065f8373ffffffffffffffffffffffffffffffffffffffff1673ffffffffffffffffffffffffffffffffffffffff1681526020019081526020015f208054806020026020016040519081016040528092919081815260200182805480156141cc57602002820191905f5260205f20905b8154815260200190600101908083116141b8575b50505050509050919050565b6141e061425c565b5f73ffffffffffffffffffffffffffffffffffffffff168173ffffffffffffffffffffffffffffffffffffffff1603614250575f6040517f1e4fbdf700000000000000000000000000000000000000000000000000000000815260040161424791906148f5565b60405180910390fd5b6142598161446c565b50565b614264614305565b73ffffffffffffffffffffffffffffffffffffffff166142826133c0565b73ffffffffffffffffffffffffffffffffffffffff16146142e1576142a5614305565b6040517f118cdaa70000000000000000000000000000000000000000000000000000000081526004016142d891906148f5565b60405180910390fd5b565b6142eb61458f565b60026142fd6142f86145d0565b6145f9565b5f0181905550565b5f61430e614602565b905090565b5f60015f8473ffffffffffffffffffffffffffffffffffffffff1673ffffffffffffffffffffffffffffffffffffffff1681526020019081526020015f2090505f8160050154826004015461436891906159a2565b90505f8111156143aa5780606483600401546143849190615948565b61438e91906154a5565b826003015f6101000a81548160ff021916908360ff1602179055505b50505050565b60016143c26143bd6145d0565b6145f9565b5f0181905550565b6143d26127ec565b15614409576040517fd93c066500000000000000000000000000000000000000000000000000000000815260040160405180910390fd5b565b61441361466a565b5f5f60146101000a81548160ff0219169083151502179055507f5db9ee0a495bf2e6ff9c91a7834c1ba4fdd244a5e8aa4e537bd38aeae4b073aa614455614305565b60405161446291906148f5565b60405180910390a1565b5f5f5f9054906101000a900473ffffffffffffffffffffffffffffffffffffffff169050815f5f6101000a81548173ffffffffffffffffffffffffffffffffffffffff021916908373ffffffffffffffffffffffffffffffffffffffff1602179055508173ffffffffffffffffffffffffffffffffffffffff168173ffffffffffffffffffffffffffffffffffffffff167f8be0079c531659141344cd1fd0a4f28419497f9722a3daafe3b4186f6b6457e060405160405180910390a35050565b6145356143ca565b60015f60146101000a81548160ff0219169083151502179055507f62e78cea01bee320cd4e420270b5ea74000d11b0c9f74754ebdbfc544b05a258614578614305565b60405161458591906148f5565b60405180910390a1565b6145976146aa565b156145ce576040517f3ee5aeb500000000000000000000000000000000000000000000000000000000815260040160405180910390fd5b565b5f7f9b779b17422d0df92223018b32b4d1fa46e071723d6817e2486d003becc55f005f1b905090565b5f819050919050565b5f5f5f36905090505f6146136146c6565b905080821015801561462a575061462933612605565b5b1561465a575f3682840390809261464393929190615c4c565b9061464e9190615cb1565b60601c92505050614667565b6146626146d4565b925050505b90565b6146726127ec565b6146a8576040517f8dfc202b00000000000000000000000000000000000000000000000000000000815260040160405180910390fd5b565b5f60026146bd6146b86145d0565b6145f9565b5f015414905090565b5f6146cf6146db565b905090565b5f33905090565b5f6014905090565b6040518061010001604052805f73ffffffffffffffffffffffffffffffffffffffff1681526020015f8152602001606081526020015f60ff1681526020015f81526020015f81526020015f151581526020015f81525090565b6040518061018001604052805f81526020015f73ffffffffffffffffffffffffffffffffffffffff1681526020015f73ffffffffffffffffffffffffffffffffffffffff1681526020015f81526020015f81526020015f81526020015f81526020015f60048111156147b1576147b0614b10565b5b81526020015f81526020015f81526020015f81526020015f81525090565b5f5ffd5b5f5ffd5b5f5ffd5b5f5ffd5b5f5ffd5b5f5f83601f8401126147f8576147f76147d7565b5b8235905067ffffffffffffffff811115614815576148146147db565b5b602083019150836001820283011115614831576148306147df565b5b9250929050565b5f5f5f5f604085870312156148505761484f6147cf565b5b5f85013567ffffffffffffffff81111561486d5761486c6147d3565b5b614879878288016147e3565b9450945050602085013567ffffffffffffffff81111561489c5761489b6147d3565b5b6148a8878288016147e3565b925092505092959194509250565b5f73ffffffffffffffffffffffffffffffffffffffff82169050919050565b5f6148df826148b6565b9050919050565b6148ef816148d5565b82525050565b5f6020820190506149085f8301846148e6565b92915050565b614917816148d5565b8114614921575f5ffd5b50565b5f813590506149328161490e565b92915050565b5f6020828403121561494d5761494c6147cf565b5b5f61495a84828501614924565b91505092915050565b5f819050919050565b61497581614963565b82525050565b5f81519050919050565b5f82825260208201905092915050565b8281835e5f83830152505050565b5f601f19601f8301169050919050565b5f6149bd8261497b565b6149c78185614985565b93506149d7818560208601614995565b6149e0816149a3565b840191505092915050565b5f60ff82169050919050565b614a00816149eb565b82525050565b5f8115159050919050565b614a1a81614a06565b82525050565b5f61010082019050614a345f83018b6148e6565b614a41602083018a61496c565b8181036040830152614a5381896149b3565b9050614a6260608301886149f7565b614a6f608083018761496c565b614a7c60a083018661496c565b614a8960c0830185614a11565b614a9660e083018461496c565b9998505050505050505050565b614aac81614963565b8114614ab6575f5ffd5b50565b5f81359050614ac781614aa3565b92915050565b5f60208284031215614ae257614ae16147cf565b5b5f614aef84828501614ab9565b91505092915050565b5f819050919050565b614b0a81614af8565b82525050565b7f4e487b71000000000000000000000000000000000000000000000000000000005f52602160045260245ffd5b60058110614b4e57614b4d614b10565b5b50565b5f819050614b5e82614b3d565b919050565b5f614b6d82614b51565b9050919050565b614b7d81614b63565b82525050565b5f61018082019050614b975f83018f61496c565b614ba4602083018e6148e6565b614bb1604083018d6148e6565b614bbe606083018c614b01565b614bcb608083018b614b01565b614bd860a083018a61496c565b614be560c083018961496c565b614bf260e0830188614b74565b614c0061010083018761496c565b614c0e61012083018661496c565b614c1c61014083018561496c565b614c2a61016083018461496c565b9d9c50505050505050505050505050565b5f602082019050614c4e5f83018461496c565b92915050565b614c5d81614a06565b8114614c67575f5ffd5b50565b5f81359050614c7881614c54565b92915050565b5f5f60408385031215614c9457614c936147cf565b5b5f614ca185828601614ab9565b9250506020614cb285828601614c6a565b9150509250929050565b5f5f60208385031215614cd257614cd16147cf565b5b5f83013567ffffffffffffffff811115614cef57614cee6147d3565b5b614cfb858286016147e3565b92509250509250929050565b614d1081614af8565b8114614d1a575f5ffd5b50565b5f81359050614d2b81614d07565b92915050565b5f5f5f5f60608587031215614d4957614d486147cf565b5b5f614d5687828801614ab9565b9450506020614d6787828801614d1d565b935050604085013567ffffffffffffffff811115614d8857614d876147d3565b5b614d94878288016147e3565b925092505092959194509250565b5f81519050919050565b5f82825260208201905092915050565b5f819050602082019050919050565b614dd481614963565b82525050565b5f614de58383614dcb565b60208301905092915050565b5f602082019050919050565b5f614e0782614da2565b614e118185614dac565b9350614e1c83614dbc565b805f5b83811015614e4c578151614e338882614dda565b9750614e3e83614df1565b925050600181019050614e1f565b5085935050505092915050565b5f6020820190508181035f830152614e718184614dfd565b905092915050565b614e82816148d5565b82525050565b5f82825260208201905092915050565b5f614ea28261497b565b614eac8185614e88565b9350614ebc818560208601614995565b614ec5816149a3565b840191505092915050565b614ed9816149eb565b82525050565b614ee881614a06565b82525050565b5f61010083015f830151614f045f860182614e79565b506020830151614f176020860182614dcb565b5060408301518482036040860152614f2f8282614e98565b9150506060830151614f446060860182614ed0565b506080830151614f576080860182614dcb565b5060a0830151614f6a60a0860182614dcb565b5060c0830151614f7d60c0860182614edf565b5060e0830151614f9060e0860182614dcb565b508091505092915050565b5f6020820190508181035f830152614fb38184614eee565b905092915050565b5f602082019050614fce5f830184614a11565b92915050565b5f5f60408385031215614fea57614fe96147cf565b5b5f614ff785828601614d1d565b925050602061500885828601614ab9565b9150509250929050565b5f5f83601f840112615027576150266147d7565b5b8235905067ffffffffffffffff811115615044576150436147db565b5b6020830191508360018202830111156150605761505f6147df565b5b9250929050565b5f5f5f6040848603121561507e5761507d6147cf565b5b5f61508b86828701614ab9565b935050602084013567ffffffffffffffff8111156150ac576150ab6147d3565b5b6150b886828701615012565b92509250509250925092565b5f6080820190506150d75f83018761496c565b6150e4602083018661496c565b6150f1604083018561496c565b6150fe606083018461496c565b95945050505050565b5f5f5f5f6060858703121561511f5761511e6147cf565b5b5f61512c87828801614d1d565b945050602061513d87828801614ab9565b935050604085013567ffffffffffffffff81111561515e5761515d6147d3565b5b61516a878288016147e3565b925092505092959194509250565b5f5f6040838503121561518e5761518d6147cf565b5b5f61519b85828601614924565b92505060206151ac85828601614ab9565b9150509250929050565b6151bf81614af8565b82525050565b6151ce81614b63565b82525050565b61018082015f8201516151e95f850182614dcb565b5060208201516151fc6020850182614e79565b50604082015161520f6040850182614e79565b50606082015161522260608501826151b6565b50608082015161523560808501826151b6565b5060a082015161524860a0850182614dcb565b5060c082015161525b60c0850182614dcb565b5060e082015161526e60e08501826151c5565b50610100820151615283610100850182614dcb565b50610120820151615298610120850182614dcb565b506101408201516152ad610140850182614dcb565b506101608201516152c2610160850182614dcb565b50505050565b5f610180820190506152dc5f8301846151d4565b92915050565b5f67ffffffffffffffff82169050919050565b6152fe816152e2565b82525050565b5f6040820190506153175f8301856152f5565b61532460208301846152f5565b9392505050565b828183375f83830152505050565b5f6153448385614985565b935061535183858461532b565b61535a836149a3565b840190509392505050565b5f6040820190508181035f83015261537e818688615339565b90508181036020830152615393818486615339565b905095945050505050565b5f81905092915050565b5f6153b28261497b565b6153bc818561539e565b93506153cc818560208601614995565b80840191505092915050565b5f6153e382846153a8565b915081905092915050565b7f4e487b71000000000000000000000000000000000000000000000000000000005f52602260045260245ffd5b5f600282049050600182168061543257607f821691505b602082108103615445576154446153ee565b5b50919050565b7f4e487b71000000000000000000000000000000000000000000000000000000005f52601260045260245ffd5b7f4e487b71000000000000000000000000000000000000000000000000000000005f52601160045260245ffd5b5f6154af82614963565b91506154ba83614963565b9250826154ca576154c961544b565b5b828204905092915050565b5f6154df82614963565b91506154ea83614963565b925082820390508181111561550257615501615478565b5b92915050565b5f61551282614963565b91507fffffffffffffffffffffffffffffffffffffffffffffffffffffffffffffffff820361554457615543615478565b5b600182019050919050565b50565b5f61555d5f8361539e565b91506155688261554f565b5f82019050919050565b5f61557c82615552565b9150819050919050565b5f82825260208201905092915050565b7f4a6f622074696d656f75740000000000000000000000000000000000000000005f82015250565b5f6155ca600b83615586565b91506155d582615596565b602082019050919050565b5f6040820190506155f35f83018461496c565b8181036020830152615604816155be565b905092915050565b7f44697370757465206c6f737400000000000000000000000000000000000000005f82015250565b5f615640600c83615586565b915061564b8261560c565b602082019050919050565b5f6040820190506156695f83018461496c565b818103602083015261567a81615634565b905092915050565b5f82905092915050565b7f4e487b71000000000000000000000000000000000000000000000000000000005f52604160045260245ffd5b5f819050815f5260205f209050919050565b5f6020601f8301049050919050565b5f82821b905092915050565b5f600883026157157fffffffffffffffffffffffffffffffffffffffffffffffffffffffffffffffff826156da565b61571f86836156da565b95508019841693508086168417925050509392505050565b5f819050919050565b5f61575a61575561575084614963565b615737565b614963565b9050919050565b5f819050919050565b61577383615740565b61578761577f82615761565b8484546156e6565b825550505050565b5f5f905090565b61579e61578f565b6157a981848461576a565b505050565b5b818110156157cc576157c15f82615796565b6001810190506157af565b5050565b601f821115615811576157e2816156b9565b6157eb846156cb565b810160208510156157fa578190505b61580e615806856156cb565b8301826157ae565b50505b505050565b5f82821c905092915050565b5f6158315f1984600802615816565b1980831691505092915050565b5f6158498383615822565b9150826002028217905092915050565b6158638383615682565b67ffffffffffffffff81111561587c5761587b61568c565b5b615886825461541b565b6158918282856157d0565b5f601f8311600181146158be575f84156158ac578287013590505b6158b6858261583e565b86555061591d565b601f1984166158cc866156b9565b5f5b828110156158f3578489013582556001820191506020850194506020810190506158ce565b86831015615910578489013561590c601f891682615822565b8355505b6001600288020188555050505b50505050505050565b5f6020820190508181035f83015261593f818486615339565b90509392505050565b5f61595282614963565b915061595d83614963565b925082820261596b81614963565b9150828204841483151761598257615981615478565b5b5092915050565b5f60208201905061599c5f830184614b01565b92915050565b5f6159ac82614963565b91506159b783614963565b92508282019050808211156159cf576159ce615478565b5b92915050565b5f6040820190506159e85f830185614b01565b6159f5602083018461496c565b9392505050565b5f615a078385615586565b9350615a1483858461532b565b615a1d836149a3565b840190509392505050565b5f6020820190508181035f830152615a418184866159fc565b90509392505050565b615a53816152e2565b8114615a5d575f5ffd5b50565b5f81519050615a6e81615a4a565b92915050565b5f5f60408385031215615a8a57615a896147cf565b5b5f615a9785828601615a60565b9250506020615aa885828601615a60565b9150509250929050565b615abb816152e2565b82525050565b604082015f820151615ad55f850182615ab2565b506020820151615ae86020850182615ab2565b50505050565b5f6060820190508181035f830152615b07818587615339565b9050615b166020830184615ac1565b949350505050565b5f604082019050615b315f83018561496c565b615b3e602083018461496c565b9392505050565b615b4e8261497b565b67ffffffffffffffff811115615b6757615b6661568c565b5b615b71825461541b565b615b7c8282856157d0565b5f60209050601f831160018114615bad575f8415615b9b578287015190505b615ba5858261583e565b865550615c0c565b601f198416615bbb866156b9565b5f5b82811015615be257848901518255600182019150602085019450602081019050615bbd565b86831015615bff5784890151615bfb601f891682615822565b8355505b6001600288020188555050505b505050505050565b5f604082019050615c275f83018661496c565b8181036020830152615c3a818486615339565b9050949350505050565b5f5ffd5b5f5ffd5b5f5f85851115615c5f57615c5e615c44565b5b83861115615c7057615c6f615c48565b5b6001850283019150848603905094509492505050565b5f7fffffffffffffffffffffffffffffffffffffffff00000000000000000000000082169050919050565b5f615cbc8383615682565b82615cc78135615c86565b92506014821015615d0757615d027fffffffffffffffffffffffffffffffffffffffff000000000000000000000000836014036008026156da565b831692505b50509291505056fea26469706673582212208956320ba5429f6b91073e0b9533ab5d948e5c3dfaa5eed9789f8180a9c078f364736f6c634300081c0033","linkReferences":{}},"methodIdentifiers":{"BPS_DENOMINATOR()":"e1a45218","XCM_PRECOMPILE()":"077120cc","addStake()":"5a627dbc","assignJob(uint256)":"3c60e0b1","buyerJobs(address,uint256)":"ce02dd7d","cancelJob(uint256)":"1dffa3dc","deactivateProvider()":"d40ab082","disputeResult(uint256,string)":"5e215cf0","estimateXCMWeight(bytes)":"c6371f8e","feeRecipient()":"46904840","getBuyerJobs(address)":"437505bf","getJob(uint256)":"bf22c457","getMarketplaceStats()":"812d966a","getProvider(address)":"55f21eb7","getProviderJobs(address)":"f2640b5e","isProvider(address)":"6b074a07","isTrustedForwarder(address)":"572b6c05","jobs(uint256)":"180aedf3","minStakeAmount()":"f1887684","nextJobId()":"b0c2aa5e","owner()":"8da5cb5b","pause()":"8456cb59","paused()":"5c975abb","platformFeeBps()":"22dcd13e","providerCount()":"74c83268","providerJobs(address,uint256)":"927a831b","providers(address)":"0787bc27","reactivateProvider()":"bd9257cf","registerProvider(bytes)":"a16a7d7a","renounceOwnership()":"715018a6","resolveDispute(uint256,bool)":"34b25ee2","sendXCMMessage(bytes,bytes)":"06e36d03","setFeeRecipient(address)":"e74b981b","setMinStakeAmount(uint256)":"eb4af045","setPlatformFee(uint256)":"12e8e2c3","slashProvider(uint256)":"1adabe0f","submitJob(bytes32,uint256)":"5d3dec24","submitJobWithXCM(bytes32,uint256,bytes)":"8648a5b2","submitProof(uint256,bytes32,bytes)":"3dd68feb","totalJobsCompleted()":"8ee0decf","totalJobsCreated()":"22ef57bd","totalVolumeEscrowed()":"47d4b8cc","transferOwnership(address)":"f2fde38b","trustedForwarder()":"7da0a877","unpause()":"3f4ba83a","updateGPUSpecs(bytes)":"371ac6ce","withdrawStake()":"bed9d861"},"id":41}